{
  "_format": "hh-sol-artifact-1",
  "contractName": "Scoring",
  "sourceName": "contracts/Scoring.sol",
  "abi": [
    {
      "inputs": [
        {
          "internalType": "address",
          "name": "_factoryAddress",
          "type": "address"
        }
      ],
      "stateMutability": "nonpayable",
      "type": "constructor"
    },
    {
      "inputs": [],
      "name": "factoryAddress",
      "outputs": [
        {
          "internalType": "address",
          "name": "",
          "type": "address"
        }
      ],
      "stateMutability": "view",
      "type": "function"
    },
    {
      "inputs": [
        {
          "internalType": "address",
          "name": "_address",
          "type": "address"
        }
      ],
      "name": "getScore",
      "outputs": [
        {
          "internalType": "int256",
          "name": "",
          "type": "int256"
        }
      ],
      "stateMutability": "view",
      "type": "function"
    }
  ],
  "bytecode": "0x60a060405234801561001057600080fd5b506040516107f63803806107f6833981810160405281019061003291906100cf565b8073ffffffffffffffffffffffffffffffffffffffff1660808173ffffffffffffffffffffffffffffffffffffffff1681525050506100fc565b600080fd5b600073ffffffffffffffffffffffffffffffffffffffff82169050919050565b600061009c82610071565b9050919050565b6100ac81610091565b81146100b757600080fd5b50565b6000815190506100c9816100a3565b92915050565b6000602082840312156100e5576100e461006c565b5b60006100f3848285016100ba565b91505092915050565b6080516106da61011c60003960008181608b015260b201526106da6000f3fe608060405234801561001057600080fd5b50600436106100365760003560e01c8063966dae0e1461003b578063d47875d014610059575b600080fd5b610043610089565b6040516100509190610399565b60405180910390f35b610073600480360381019061006e91906103e5565b6100ad565b604051610080919061042b565b60405180910390f35b7f000000000000000000000000000000000000000000000000000000000000000081565b6000807f000000000000000000000000000000000000000000000000000000000000000090506000806000600190505b8373ffffffffffffffffffffffffffffffffffffffff1663c95669a56040518163ffffffff1660e01b8152600401602060405180830381865afa158015610128573d6000803e3d6000fd5b505050506040513d601f19601f8201168201806040525081019061014c919061047c565b81116103175760008473ffffffffffffffffffffffffffffffffffffffff1663614da4ac836040518263ffffffff1660e01b815260040161018d91906104b8565b602060405180830381865afa1580156101aa573d6000803e3d6000fd5b505050506040513d601f19601f820116820180604052508101906101ce9190610511565b90508673ffffffffffffffffffffffffffffffffffffffff168173ffffffffffffffffffffffffffffffffffffffff16637df1f1b96040518163ffffffff1660e01b8152600401602060405180830381865afa158015610232573d6000803e3d6000fd5b505050506040513d601f19601f820116820180604052508101906102569190610553565b73ffffffffffffffffffffffffffffffffffffffff160361030357828061027c906105af565b9350508073ffffffffffffffffffffffffffffffffffffffff16633cf4d1f86040518163ffffffff1660e01b8152600401602060405180830381865afa1580156102ca573d6000803e3d6000fd5b505050506040513d601f19601f820116820180604052508101906102ee919061062f565b156103025783806102fe906105af565b9450505b5b50808061030f9061065c565b9150506100dd565b50600082131561034c577fffffffffffffffffffffffffffffffffffffffffffffffffffffffffffffffff9350505050610353565b8093505050505b919050565b600073ffffffffffffffffffffffffffffffffffffffff82169050919050565b600061038382610358565b9050919050565b61039381610378565b82525050565b60006020820190506103ae600083018461038a565b92915050565b600080fd5b6103c281610378565b81146103cd57600080fd5b50565b6000813590506103df816103b9565b92915050565b6000602082840312156103fb576103fa6103b4565b5b6000610409848285016103d0565b91505092915050565b6000819050919050565b61042581610412565b82525050565b6000602082019050610440600083018461041c565b92915050565b6000819050919050565b61045981610446565b811461046457600080fd5b50565b60008151905061047681610450565b92915050565b600060208284031215610492576104916103b4565b5b60006104a084828501610467565b91505092915050565b6104b281610446565b82525050565b60006020820190506104cd60008301846104a9565b92915050565b60006104de82610378565b9050919050565b6104ee816104d3565b81146104f957600080fd5b50565b60008151905061050b816104e5565b92915050565b600060208284031215610527576105266103b4565b5b6000610535848285016104fc565b91505092915050565b60008151905061054d816103b9565b92915050565b600060208284031215610569576105686103b4565b5b60006105778482850161053e565b91505092915050565b7f4e487b7100000000000000000000000000000000000000000000000000000000600052601160045260246000fd5b60006105ba82610412565b91507f7fffffffffffffffffffffffffffffffffffffffffffffffffffffffffffffff82036105ec576105eb610580565b5b600182019050919050565b60008115159050919050565b61060c816105f7565b811461061757600080fd5b50565b60008151905061062981610603565b92915050565b600060208284031215610645576106446103b4565b5b60006106538482850161061a565b91505092915050565b600061066782610446565b91507fffffffffffffffffffffffffffffffffffffffffffffffffffffffffffffffff820361069957610698610580565b5b60018201905091905056fea2646970667358221220aae0b3940fc5c93a99dda56995c32b057e4efc41db43b62a771e86fcef0823a564736f6c634300080e0033",
  "linkReferences": {},
  "deployedLinkReferences": {}
}