{
  "_format": "hh-sol-artifact-1",
  "contractName": "CompanyManagerFactory",
  "sourceName": "contracts/CompanyManagerFactory.sol",
  "abi": [
    {
      "inputs": [
        {
          "internalType": "uint256",
          "name": "",
          "type": "uint256"
        }
      ],
      "name": "companayManagerArray",
      "outputs": [
        {
          "internalType": "contract CompanayManager",
          "name": "",
          "type": "address"
        }
      ],
      "stateMutability": "view",
      "type": "function"
    },
    {
      "inputs": [
        {
          "internalType": "string",
          "name": "name_",
          "type": "string"
        },
        {
          "internalType": "string",
          "name": "symbol_",
          "type": "string"
        },
        {
          "internalType": "contract ISuperToken",
          "name": "_payrollToken",
          "type": "address"
        },
        {
          "internalType": "contract ISuperfluid",
          "name": "_host",
          "type": "address"
        }
      ],
      "name": "createCompanyManagerContract",
      "outputs": [],
      "stateMutability": "nonpayable",
      "type": "function"
    },
    {
      "inputs": [
        {
          "internalType": "uint256",
          "name": "_index",
          "type": "uint256"
        }
      ],
      "name": "getCompanyManagerContract",
      "outputs": [
        {
          "internalType": "address",
          "name": "",
          "type": "address"
        }
      ],
      "stateMutability": "view",
      "type": "function"
    },
    {
      "inputs": [
        {
          "internalType": "address",
          "name": "owner",
          "type": "address"
        }
      ],
      "name": "getCompanyManagerContractByOwner",
      "outputs": [
        {
          "internalType": "address",
          "name": "",
          "type": "address"
        }
      ],
      "stateMutability": "view",
      "type": "function"
    }
  ],
  "bytecode": "0x608060405234801561001057600080fd5b506152ba806100206000396000f3fe60806040523480156200001157600080fd5b5060043610620000525760003560e01c80634566f864146200005757806363eea6ff146200008d578063c115ffe114620000c3578063d67352f614620000f9575b600080fd5b6200007560048036038101906200006f9190620003be565b62000119565b60405162000084919062000401565b60405180910390f35b620000ab6004803603810190620000a5919062000459565b62000182565b604051620000ba919062000401565b60405180910390f35b620000e16004803603810190620000db919062000459565b620001cc565b604051620000f09190620004f6565b60405180910390f35b620001176004803603810190620001119190620006ff565b6200020c565b005b6000600160008373ffffffffffffffffffffffffffffffffffffffff1673ffffffffffffffffffffffffffffffffffffffff16815260200190815260200160002060009054906101000a900473ffffffffffffffffffffffffffffffffffffffff169050919050565b60008082815481106200019a5762000199620007af565b5b9060005260206000200160009054906101000a900473ffffffffffffffffffffffffffffffffffffffff169050919050565b60008181548110620001dd57600080fd5b906000526020600020016000915054906101000a900473ffffffffffffffffffffffffffffffffffffffff1681565b600084848484604051620002209062000337565b6200022f9493929190620008bb565b604051809103906000f0801580156200024c573d6000803e3d6000fd5b5090506000819080600181540180825580915050600190039060005260206000200160009091909190916101000a81548173ffffffffffffffffffffffffffffffffffffffff021916908373ffffffffffffffffffffffffffffffffffffffff16021790555080600160003373ffffffffffffffffffffffffffffffffffffffff1673ffffffffffffffffffffffffffffffffffffffff16815260200190815260200160002060006101000a81548173ffffffffffffffffffffffffffffffffffffffff021916908373ffffffffffffffffffffffffffffffffffffffff1602179055505050505050565b61496e806200091783390190565b6000604051905090565b600080fd5b600080fd5b600073ffffffffffffffffffffffffffffffffffffffff82169050919050565b6000620003868262000359565b9050919050565b620003988162000379565b8114620003a457600080fd5b50565b600081359050620003b8816200038d565b92915050565b600060208284031215620003d757620003d66200034f565b5b6000620003e784828501620003a7565b91505092915050565b620003fb8162000379565b82525050565b6000602082019050620004186000830184620003f0565b92915050565b6000819050919050565b62000433816200041e565b81146200043f57600080fd5b50565b600081359050620004538162000428565b92915050565b6000602082840312156200047257620004716200034f565b5b6000620004828482850162000442565b91505092915050565b6000819050919050565b6000620004b6620004b0620004aa8462000359565b6200048b565b62000359565b9050919050565b6000620004ca8262000495565b9050919050565b6000620004de82620004bd565b9050919050565b620004f081620004d1565b82525050565b60006020820190506200050d6000830184620004e5565b92915050565b600080fd5b600080fd5b6000601f19601f8301169050919050565b7f4e487b7100000000000000000000000000000000000000000000000000000000600052604160045260246000fd5b62000568826200051d565b810181811067ffffffffffffffff821117156200058a57620005896200052e565b5b80604052505050565b60006200059f62000345565b9050620005ad82826200055d565b919050565b600067ffffffffffffffff821115620005d057620005cf6200052e565b5b620005db826200051d565b9050602081019050919050565b82818337600083830152505050565b60006200060e6200060884620005b2565b62000593565b9050828152602081018484840111156200062d576200062c62000518565b5b6200063a848285620005e8565b509392505050565b600082601f8301126200065a576200065962000513565b5b81356200066c848260208601620005f7565b91505092915050565b6000620006828262000379565b9050919050565b620006948162000675565b8114620006a057600080fd5b50565b600081359050620006b48162000689565b92915050565b6000620006c78262000379565b9050919050565b620006d981620006ba565b8114620006e557600080fd5b50565b600081359050620006f981620006ce565b92915050565b600080600080608085870312156200071c576200071b6200034f565b5b600085013567ffffffffffffffff8111156200073d576200073c62000354565b5b6200074b8782880162000642565b945050602085013567ffffffffffffffff8111156200076f576200076e62000354565b5b6200077d8782880162000642565b93505060406200079087828801620006a3565b9250506060620007a387828801620006e8565b91505092959194509250565b7f4e487b7100000000000000000000000000000000000000000000000000000000600052603260045260246000fd5b600081519050919050565b600082825260208201905092915050565b60005b838110156200081a578082015181840152602081019050620007fd565b838111156200082a576000848401525b50505050565b60006200083d82620007de565b620008498185620007e9565b93506200085b818560208601620007fa565b62000866816200051d565b840191505092915050565b60006200087e82620004bd565b9050919050565b620008908162000871565b82525050565b6000620008a382620004bd565b9050919050565b620008b58162000896565b82525050565b60006080820190508181036000830152620008d7818762000830565b90508181036020830152620008ed818662000830565b9050620008fe604083018562000885565b6200090d6060830184620008aa565b9594505050505056fe60c06040523480156200001157600080fd5b506040516200496e3803806200496e833981810160405281019062000037919062000758565b81818173ffffffffffffffffffffffffffffffffffffffff1660a08173ffffffffffffffffffffffffffffffffffffffff16815250508073ffffffffffffffffffffffffffffffffffffffff1660808173ffffffffffffffffffffffffffffffffffffffff168152505033600260006101000a81548173ffffffffffffffffffffffffffffffffffffffff021916908373ffffffffffffffffffffffffffffffffffffffff16021790555060006004819055506000600560006101000a8154816bffffffffffffffffffffffff0219169083600b0b6bffffffffffffffffffffffff16021790555060008173ffffffffffffffffffffffffffffffffffffffff1663b6d200de7fa9214cc96615e0085d3bb077758db69497dc2dce3b2b1e97bc93c3d18d83efd36040518263ffffffff1660e01b81526004016200017c919062000823565b602060405180830381865afa1580156200019a573d6000803e3d6000fd5b505050506040513d601f19601f82011682018060405250810190620001c0919062000885565b905060405180604001604052808373ffffffffffffffffffffffffffffffffffffffff1681526020018273ffffffffffffffffffffffffffffffffffffffff168152506000808201518160000160006101000a81548173ffffffffffffffffffffffffffffffffffffffff021916908373ffffffffffffffffffffffffffffffffffffffff16021790555060208201518160010160006101000a81548173ffffffffffffffffffffffffffffffffffffffff021916908373ffffffffffffffffffffffffffffffffffffffff1602179055509050506000641000000000640400000000640100000000600117171790508273ffffffffffffffffffffffffffffffffffffffff1663ad3915c8826040518263ffffffff1660e01b8152600401620002eb9190620008d2565b600060405180830381600087803b1580156200030657600080fd5b505af11580156200031b573d6000803e3d6000fd5b505050505050505062000343620003376200037f60201b60201c565b6200038760201b60201c565b83600790805190602001906200035b9291906200044d565b508260099080519060200190620003749291906200044d565b505050505062000953565b600033905090565b60006005600c9054906101000a900473ffffffffffffffffffffffffffffffffffffffff169050816005600c6101000a81548173ffffffffffffffffffffffffffffffffffffffff021916908373ffffffffffffffffffffffffffffffffffffffff1602179055508173ffffffffffffffffffffffffffffffffffffffff168173ffffffffffffffffffffffffffffffffffffffff167f8be0079c531659141344cd1fd0a4f28419497f9722a3daafe3b4186f6b6457e060405160405180910390a35050565b8280546200045b906200091e565b90600052602060002090601f0160209004810192826200047f5760008555620004cb565b82601f106200049a57805160ff1916838001178555620004cb565b82800160010185558215620004cb579182015b82811115620004ca578251825591602001919060010190620004ad565b5b509050620004da9190620004de565b5090565b5b80821115620004f9576000816000905550600101620004df565b5090565b6000604051905090565b600080fd5b600080fd5b600080fd5b600080fd5b6000601f19601f8301169050919050565b7f4e487b7100000000000000000000000000000000000000000000000000000000600052604160045260246000fd5b62000566826200051b565b810181811067ffffffffffffffff821117156200058857620005876200052c565b5b80604052505050565b60006200059d620004fd565b9050620005ab82826200055b565b919050565b600067ffffffffffffffff821115620005ce57620005cd6200052c565b5b620005d9826200051b565b9050602081019050919050565b60005b8381101562000606578082015181840152602081019050620005e9565b8381111562000616576000848401525b50505050565b6000620006336200062d84620005b0565b62000591565b90508281526020810184848401111562000652576200065162000516565b5b6200065f848285620005e6565b509392505050565b600082601f8301126200067f576200067e62000511565b5b8151620006918482602086016200061c565b91505092915050565b600073ffffffffffffffffffffffffffffffffffffffff82169050919050565b6000620006c7826200069a565b9050919050565b6000620006db82620006ba565b9050919050565b620006ed81620006ce565b8114620006f957600080fd5b50565b6000815190506200070d81620006e2565b92915050565b60006200072082620006ba565b9050919050565b620007328162000713565b81146200073e57600080fd5b50565b600081519050620007528162000727565b92915050565b6000806000806080858703121562000775576200077462000507565b5b600085015167ffffffffffffffff8111156200079657620007956200050c565b5b620007a48782880162000667565b945050602085015167ffffffffffffffff811115620007c857620007c76200050c565b5b620007d68782880162000667565b9350506040620007e987828801620006fc565b9250506060620007fc8782880162000741565b91505092959194509250565b6000819050919050565b6200081d8162000808565b82525050565b60006020820190506200083a600083018462000812565b92915050565b60006200084d82620006ba565b9050919050565b6200085f8162000840565b81146200086b57600080fd5b50565b6000815190506200087f8162000854565b92915050565b6000602082840312156200089e576200089d62000507565b5b6000620008ae848285016200086e565b91505092915050565b6000819050919050565b620008cc81620008b7565b82525050565b6000602082019050620008e96000830184620008c1565b92915050565b7f4e487b7100000000000000000000000000000000000000000000000000000000600052602260045260246000fd5b600060028204905060018216806200093757607f821691505b6020821081036200094d576200094c620008ef565b5b50919050565b60805160a051613fd26200099c6000396000818161106e015281816111480152818161136d0152818161166e0152818161175c0152611a13015260006119790152613fd26000f3fe608060405234801561001057600080fd5b50600436106101a95760003560e01c8063715018a6116100f9578063c87b56dd11610097578063d86ed3e511610071578063d86ed3e5146104ea578063f1038c471461051a578063f2fde38b14610536578063f437bc5914610552576101a9565b8063c87b56dd1461047d578063cf20c6d1146104ad578063d3112b2e146104cb576101a9565b80639047bf58116100d35780639047bf581461040757806395d89b4114610425578063a0e67e2b14610443578063b64214d614610461576101a9565b8063715018a6146103af578063884d1f40146103b95780638da5cb5b146103e9576101a9565b8063230dbd291161016657806353c11f991161014057806353c11f99146102ef57806359d1d43c1461031f5780635f9e7d771461034f5780636352211e1461037f576101a9565b8063230dbd291461027157806330d9c915146102a15780633884724e146102d1576101a9565b806306fdde03146101ae57806310f13a8c146101cc578063162094c4146101e8578063189e274614610204578063215eed021461023557806321aee35814610253575b600080fd5b6101b6610570565b6040516101c3919061262d565b60405180910390f35b6101e660048036038101906101e191906126fe565b610602565b005b61020260048036038101906101fd91906128f9565b61069c565b005b61021e60048036038101906102199190612955565b61078c565b60405161022c9291906129df565b60405180910390f35b61023d6107dd565b60405161024a9190612a17565b60405180910390f35b61025b610801565b6040516102689190612a32565b60405180910390f35b61028b60048036038101906102869190612b0d565b610827565b6040516102989190612c51565b60405180910390f35b6102bb60048036038101906102b69190612c73565b6109a3565b6040516102c89190612c51565b60405180910390f35b6102d96109e0565b6040516102e69190612d2f565b60405180910390f35b61030960048036038101906103049190612b0d565b6109f3565b6040516103169190612c51565b60405180910390f35b61033960048036038101906103349190612d4a565b610b48565b604051610346919061262d565b60405180910390f35b61036960048036038101906103649190612c73565b610c0d565b6040516103769190612c51565b60405180910390f35b61039960048036038101906103949190612955565b610c4a565b6040516103a69190612a32565b60405180910390f35b6103b7610cfb565b005b6103d360048036038101906103ce9190612c73565b610d83565b6040516103e09190612c51565b60405180910390f35b6103f1610dc0565b6040516103fe9190612a32565b60405180910390f35b61040f610dea565b60405161041c9190612db9565b60405180910390f35b61042d610df0565b60405161043a919061262d565b60405180910390f35b61044b610e82565b6040516104589190612e92565b60405180910390f35b61047b60048036038101906104769190612ee0565b610f7c565b005b61049760048036038101906104929190612955565b6112b7565b6040516104a4919061262d565b60405180910390f35b6104b561136b565b6040516104c29190612f92565b60405180910390f35b6104d361138f565b6040516104e1929190612fef565b60405180910390f35b61050460048036038101906104ff9190612b0d565b6113e1565b6040516105119190612c51565b60405180910390f35b610534600480360381019061052f9190613018565b61155d565b005b610550600480360381019061054b9190613058565b611880565b005b61055a611977565b6040516105679190613085565b60405180910390f35b60606007805461057f906130cf565b80601f01602080910402602001604051908101604052809291908181526020018280546105ab906130cf565b80156105f85780601f106105cd576101008083540402835291602001916105f8565b820191906000526020600020905b8154815290600101906020018083116105db57829003601f168201915b5050505050905090565b8181600660008881526020019081526020016000208686604051610627929190613130565b9081526020016040518091039020919061064292919061246b565b508383604051610653929190613130565b6040518091039020857fd8c9334b1a9c2f9da342a0a2b32629c1a229b6445dad78947f674b44444a7550868660405161068d929190613176565b60405180910390a35050505050565b6106a461199b565b73ffffffffffffffffffffffffffffffffffffffff166106c2610dc0565b73ffffffffffffffffffffffffffffffffffffffff1614610718576040517f08c379a000000000000000000000000000000000000000000000000000000000815260040161070f906131e6565b60405180910390fd5b610721826119a3565b610760576040517f08c379a000000000000000000000000000000000000000000000000000000000815260040161075790613278565b60405180910390fd5b80600b600084815260200190815260200160002090805190602001906107879291906124f1565b505050565b60036020528060005260406000206000915090508060000160009054906101000a900473ffffffffffffffffffffffffffffffffffffffff16908060000160149054906101000a9004600b0b905082565b7fa9214cc96615e0085d3bb077758db69497dc2dce3b2b1e97bc93c3d18d83efd381565b600260009054906101000a900473ffffffffffffffffffffffffffffffffffffffff1681565b6060898961083482611a0f565b610873576040517f08c379a000000000000000000000000000000000000000000000000000000000815260040161086a906132e4565b60405180910390fd5b61087c81611a67565b6108bb576040517f08c379a00000000000000000000000000000000000000000000000000000000081526004016108b290613376565b60405180910390fd5b6000800160009054906101000a900473ffffffffffffffffffffffffffffffffffffffff1673ffffffffffffffffffffffffffffffffffffffff163373ffffffffffffffffffffffffffffffffffffffff161461094d576040517f08c379a0000000000000000000000000000000000000000000000000000000008152600401610944906133e2565b60405180910390fd5b84848080601f016020809104026020016040519081016040528093929190818152602001838380828437600081840152601f19601f82011690508083019250505050505050925050509998505050505050505050565b60606040517f08c379a00000000000000000000000000000000000000000000000000000000081526004016109d790613474565b60405180910390fd5b600560009054906101000a9004600b0b81565b60606000800160009054906101000a900473ffffffffffffffffffffffffffffffffffffffff1673ffffffffffffffffffffffffffffffffffffffff163373ffffffffffffffffffffffffffffffffffffffff1614610a87576040517f08c379a0000000000000000000000000000000000000000000000000000000008152600401610a7e906133e2565b60405180910390fd5b610a9089611a67565b1580610aa25750610aa08a611a0f565b155b15610af35782828080601f016020809104026020016040519081016040528093929190818152602001838380828437600081840152601f19601f820116905080830192505050505050509050610b3b565b82828080601f016020809104026020016040519081016040528093929190818152602001838380828437600081840152601f19601f8201169050808301925050505050505090505b9998505050505050505050565b6060600660008581526020019081526020016000208383604051610b6d929190613130565b90815260200160405180910390208054610b86906130cf565b80601f0160208091040260200160405190810160405280929190818152602001828054610bb2906130cf565b8015610bff5780601f10610bd457610100808354040283529160200191610bff565b820191906000526020600020905b815481529060010190602001808311610be257829003601f168201915b505050505090509392505050565b60606040517f08c379a0000000000000000000000000000000000000000000000000000000008152600401610c4190613506565b60405180910390fd5b600080600a600084815260200190815260200160002060009054906101000a900473ffffffffffffffffffffffffffffffffffffffff169050600073ffffffffffffffffffffffffffffffffffffffff168173ffffffffffffffffffffffffffffffffffffffff1603610cf2576040517f08c379a0000000000000000000000000000000000000000000000000000000008152600401610ce990613598565b60405180910390fd5b80915050919050565b610d0361199b565b73ffffffffffffffffffffffffffffffffffffffff16610d21610dc0565b73ffffffffffffffffffffffffffffffffffffffff1614610d77576040517f08c379a0000000000000000000000000000000000000000000000000000000008152600401610d6e906131e6565b60405180910390fd5b610d816000611b01565b565b60606040517f08c379a0000000000000000000000000000000000000000000000000000000008152600401610db79061362a565b60405180910390fd5b60006005600c9054906101000a900473ffffffffffffffffffffffffffffffffffffffff16905090565b60045481565b606060098054610dff906130cf565b80601f0160208091040260200160405190810160405280929190818152602001828054610e2b906130cf565b8015610e785780601f10610e4d57610100808354040283529160200191610e78565b820191906000526020600020905b815481529060010190602001808311610e5b57829003601f168201915b5050505050905090565b6060600060085467ffffffffffffffff811115610ea257610ea16127ce565b5b604051908082528060200260200182016040528015610ed05781602001602082028036833780820191505090505b50905060005b600854811015610f7457600a600082815260200190815260200160002060009054906101000a900473ffffffffffffffffffffffffffffffffffffffff16828281518110610f2757610f2661364a565b5b602002602001019073ffffffffffffffffffffffffffffffffffffffff16908173ffffffffffffffffffffffffffffffffffffffff16815250508080610f6c906136a8565b915050610ed6565b508091505090565b610f8461199b565b73ffffffffffffffffffffffffffffffffffffffff16610fa2610dc0565b73ffffffffffffffffffffffffffffffffffffffff1614610ff8576040517f08c379a0000000000000000000000000000000000000000000000000000000008152600401610fef906131e6565b60405180910390fd5b8281611014858560405180602001604052806000815250611bc7565b6000650a86cc91c2808261102891906136f0565b905060008060010160009054906101000a900473ffffffffffffffffffffffffffffffffffffffff1673ffffffffffffffffffffffffffffffffffffffff1663e6a1e8887f0000000000000000000000000000000000000000000000000000000000000000600260009054906101000a900473ffffffffffffffffffffffffffffffffffffffff16306040518463ffffffff1660e01b81526004016110cf939291906137df565b608060405180830381865afa1580156110ec573d6000803e3d6000fd5b505050506040513d601f19601f820116820180604052508101906111109190613840565b505091505081600560009054906101000a9004600b0b61113091906138a7565b600b0b81600b0b121561114257600080fd5b61117a847f0000000000000000000000000000000000000000000000000000000000000000846000611c22909392919063ffffffff16565b81600560008282829054906101000a9004600b0b61119891906138a7565b92506101000a8154816bffffffffffffffffffffffff0219169083600b0b6bffffffffffffffffffffffff160217905550600060405180604001604052808673ffffffffffffffffffffffffffffffffffffffff16815260200184600b0b81525090506004600081548092919061120e906136a8565b91905055508060036000600454815260200190815260200160002060008201518160000160006101000a81548173ffffffffffffffffffffffffffffffffffffffff021916908373ffffffffffffffffffffffffffffffffffffffff16021790555060208201518160000160146101000a8154816bffffffffffffffffffffffff0219169083600b0b6bffffffffffffffffffffffff1602179055509050505050505050505050565b60606112c282611c82565b6000600b600084815260200190815260200160002080546112e2906130cf565b80601f016020809104026020016040519081016040528092919081815260200182805461130e906130cf565b801561135b5780601f106113305761010080835404028352916020019161135b565b820191906000526020600020905b81548152906001019060200180831161133e57829003601f168201915b5050505050905080915050919050565b7f000000000000000000000000000000000000000000000000000000000000000081565b60008060000160009054906101000a900473ffffffffffffffffffffffffffffffffffffffff16908060010160009054906101000a900473ffffffffffffffffffffffffffffffffffffffff16905082565b606089896113ee82611a0f565b61142d576040517f08c379a0000000000000000000000000000000000000000000000000000000008152600401611424906132e4565b60405180910390fd5b61143681611a67565b611475576040517f08c379a000000000000000000000000000000000000000000000000000000000815260040161146c90613376565b60405180910390fd5b6000800160009054906101000a900473ffffffffffffffffffffffffffffffffffffffff1673ffffffffffffffffffffffffffffffffffffffff163373ffffffffffffffffffffffffffffffffffffffff1614611507576040517f08c379a00000000000000000000000000000000000000000000000000000000081526004016114fe906133e2565b60405180910390fd5b84848080601f016020809104026020016040519081016040528093929190818152602001838380828437600081840152601f19601f82011690508083019250505050505050925050509998505050505050505050565b6000650a86cc91c2808261157191906136f0565b90506000600360008581526020019081526020016000206040518060400160405290816000820160009054906101000a900473ffffffffffffffffffffffffffffffffffffffff1673ffffffffffffffffffffffffffffffffffffffff1673ffffffffffffffffffffffffffffffffffffffff1681526020016000820160149054906101000a9004600b0b600b0b600b0b815250509050600081602001519050600082600001519050600082856116289190613927565b905060008060010160009054906101000a900473ffffffffffffffffffffffffffffffffffffffff1673ffffffffffffffffffffffffffffffffffffffff1663e6a1e8887f000000000000000000000000000000000000000000000000000000000000000030866040518463ffffffff1660e01b81526004016116ad939291906137df565b608060405180830381865afa1580156116ca573d6000803e3d6000fd5b505050506040513d601f19601f820116820180604052508101906116ee9190613840565b505091505081600560009054906101000a9004600b0b61170e91906138a7565b600b0b81600b0b121561172057600080fd5b60006040518060400160405280876000015173ffffffffffffffffffffffffffffffffffffffff16815260200188600b0b815250905061178e847f0000000000000000000000000000000000000000000000000000000000000000896000611ccd909392919063ffffffff16565b80600360008b815260200190815260200160002060008201518160000160006101000a81548173ffffffffffffffffffffffffffffffffffffffff021916908373ffffffffffffffffffffffffffffffffffffffff16021790555060208201518160000160146101000a8154816bffffffffffffffffffffffff0219169083600b0b6bffffffffffffffffffffffff16021790555090505082600560008282829054906101000a9004600b0b61184491906138a7565b92506101000a8154816bffffffffffffffffffffffff0219169083600b0b6bffffffffffffffffffffffff160217905550505050505050505050565b61188861199b565b73ffffffffffffffffffffffffffffffffffffffff166118a6610dc0565b73ffffffffffffffffffffffffffffffffffffffff16146118fc576040517f08c379a00000000000000000000000000000000000000000000000000000000081526004016118f3906131e6565b60405180910390fd5b600073ffffffffffffffffffffffffffffffffffffffff168173ffffffffffffffffffffffffffffffffffffffff160361196b576040517f08c379a000000000000000000000000000000000000000000000000000000000815260040161196290613a19565b60405180910390fd5b61197481611b01565b50565b7f000000000000000000000000000000000000000000000000000000000000000081565b600033905090565b60008073ffffffffffffffffffffffffffffffffffffffff16600a600084815260200190815260200160002060009054906101000a900473ffffffffffffffffffffffffffffffffffffffff1673ffffffffffffffffffffffffffffffffffffffff1614159050919050565b60007f000000000000000000000000000000000000000000000000000000000000000073ffffffffffffffffffffffffffffffffffffffff168273ffffffffffffffffffffffffffffffffffffffff16149050919050565b60007fa9214cc96615e0085d3bb077758db69497dc2dce3b2b1e97bc93c3d18d83efd38273ffffffffffffffffffffffffffffffffffffffff16637730599e6040518163ffffffff1660e01b8152600401602060405180830381865afa158015611ad5573d6000803e3d6000fd5b505050506040513d601f19601f82011682018060405250810190611af99190613a4e565b149050919050565b60006005600c9054906101000a900473ffffffffffffffffffffffffffffffffffffffff169050816005600c6101000a81548173ffffffffffffffffffffffffffffffffffffffff021916908373ffffffffffffffffffffffffffffffffffffffff1602179055508173ffffffffffffffffffffffffffffffffffffffff168173ffffffffffffffffffffffffffffffffffffffff167f8be0079c531659141344cd1fd0a4f28419497f9722a3daafe3b4186f6b6457e060405160405180910390a35050565b611bd18383611d2d565b611bde6000848484611f43565b611c1d576040517f08c379a0000000000000000000000000000000000000000000000000000000008152600401611c1490613aed565b60405180910390fd5b505050565b611c7c84848484600067ffffffffffffffff811115611c4457611c436127ce565b5b6040519080825280601f01601f191660200182016040528015611c765781602001600182028036833780820191505090505b506120ca565b50505050565b611c8b816119a3565b611cca576040517f08c379a0000000000000000000000000000000000000000000000000000000008152600401611cc190613b59565b60405180910390fd5b50565b611d2784848484600067ffffffffffffffff811115611cef57611cee6127ce565b5b6040519080825280601f01601f191660200182016040528015611d215781602001600182028036833780820191505090505b50612284565b50505050565b611d3561199b565b73ffffffffffffffffffffffffffffffffffffffff16611d53610dc0565b73ffffffffffffffffffffffffffffffffffffffff1614611da9576040517f08c379a0000000000000000000000000000000000000000000000000000000008152600401611da0906131e6565b60405180910390fd5b600073ffffffffffffffffffffffffffffffffffffffff168273ffffffffffffffffffffffffffffffffffffffff1603611e18576040517f08c379a0000000000000000000000000000000000000000000000000000000008152600401611e0f90613beb565b60405180910390fd5b611e21816119a3565b15611e61576040517f08c379a0000000000000000000000000000000000000000000000000000000008152600401611e5890613c7d565b60405180910390fd5b611e6d6000838361243e565b81600a600083815260200190815260200160002060006101000a81548173ffffffffffffffffffffffffffffffffffffffff021916908373ffffffffffffffffffffffffffffffffffffffff16021790555060086000815480929190611ed2906136a8565b9190505550808273ffffffffffffffffffffffffffffffffffffffff16600073ffffffffffffffffffffffffffffffffffffffff167fddf252ad1be2c89b69c2b068fc378daa952ba7f163c4a11628f55a4df523b3ef60405160405180910390a4611f3f60008383612443565b5050565b6000611f648473ffffffffffffffffffffffffffffffffffffffff16612448565b156120bd578373ffffffffffffffffffffffffffffffffffffffff1663bdf4bff6611f8d61199b565b8786866040518563ffffffff1660e01b8152600401611faf9493929190613c9d565b6020604051808303816000875af1925050508015611feb57506040513d601f19601f82011682018060405250810190611fe89190613d41565b60015b61206d573d806000811461201b576040519150601f19603f3d011682016040523d82523d6000602084013e612020565b606091505b506000815103612065576040517f08c379a000000000000000000000000000000000000000000000000000000000815260040161205c90613de0565b60405180910390fd5b805181602001fd5b63bdf4bff660e01b7bffffffffffffffffffffffffffffffffffffffffffffffffffffffff1916817bffffffffffffffffffffffffffffffffffffffffffffffffffffffff1916149150506120c2565b600190505b949350505050565b8460000160009054906101000a900473ffffffffffffffffffffffffffffffffffffffff1673ffffffffffffffffffffffffffffffffffffffff166339255d5b8660010160009054906101000a900473ffffffffffffffffffffffffffffffffffffffff168760010160009054906101000a900473ffffffffffffffffffffffffffffffffffffffff1673ffffffffffffffffffffffffffffffffffffffff166362fc305e878988600067ffffffffffffffff81111561218d5761218c6127ce565b5b6040519080825280601f01601f1916602001820160405280156121bf5781602001600182028036833780820191505090505b506040516024016121d39493929190613e21565b604051602081830303815290604052915060e01b6020820180517bffffffffffffffffffffffffffffffffffffffffffffffffffffffff8381831617835250505050846040518463ffffffff1660e01b815260040161223493929190613e6d565b6000604051808303816000875af1158015612253573d6000803e3d6000fd5b505050506040513d6000823e3d601f19601f8201168201806040525081019061227c9190613f53565b505050505050565b8460000160009054906101000a900473ffffffffffffffffffffffffffffffffffffffff1673ffffffffffffffffffffffffffffffffffffffff166339255d5b8660010160009054906101000a900473ffffffffffffffffffffffffffffffffffffffff168760010160009054906101000a900473ffffffffffffffffffffffffffffffffffffffff1673ffffffffffffffffffffffffffffffffffffffff166350209a62878988600067ffffffffffffffff811115612347576123466127ce565b5b6040519080825280601f01601f1916602001820160405280156123795781602001600182028036833780820191505090505b5060405160240161238d9493929190613e21565b604051602081830303815290604052915060e01b6020820180517bffffffffffffffffffffffffffffffffffffffffffffffffffffffff8381831617835250505050846040518463ffffffff1660e01b81526004016123ee93929190613e6d565b6000604051808303816000875af115801561240d573d6000803e3d6000fd5b505050506040513d6000823e3d601f19601f820116820180604052508101906124369190613f53565b505050505050565b505050565b505050565b6000808273ffffffffffffffffffffffffffffffffffffffff163b119050919050565b828054612477906130cf565b90600052602060002090601f01602090048101928261249957600085556124e0565b82601f106124b257803560ff19168380011785556124e0565b828001600101855582156124e0579182015b828111156124df5782358255916020019190600101906124c4565b5b5090506124ed9190612577565b5090565b8280546124fd906130cf565b90600052602060002090601f01602090048101928261251f5760008555612566565b82601f1061253857805160ff1916838001178555612566565b82800160010185558215612566579182015b8281111561256557825182559160200191906001019061254a565b5b5090506125739190612577565b5090565b5b80821115612590576000816000905550600101612578565b5090565b600081519050919050565b600082825260208201905092915050565b60005b838110156125ce5780820151818401526020810190506125b3565b838111156125dd576000848401525b50505050565b6000601f19601f8301169050919050565b60006125ff82612594565b612609818561259f565b93506126198185602086016125b0565b612622816125e3565b840191505092915050565b6000602082019050818103600083015261264781846125f4565b905092915050565b6000604051905090565b600080fd5b600080fd5b6000819050919050565b61267681612663565b811461268157600080fd5b50565b6000813590506126938161266d565b92915050565b600080fd5b600080fd5b600080fd5b60008083601f8401126126be576126bd612699565b5b8235905067ffffffffffffffff8111156126db576126da61269e565b5b6020830191508360018202830111156126f7576126f66126a3565b5b9250929050565b60008060008060006060868803121561271a57612719612659565b5b600061272888828901612684565b955050602086013567ffffffffffffffff8111156127495761274861265e565b5b612755888289016126a8565b9450945050604086013567ffffffffffffffff8111156127785761277761265e565b5b612784888289016126a8565b92509250509295509295909350565b6000819050919050565b6127a681612793565b81146127b157600080fd5b50565b6000813590506127c38161279d565b92915050565b600080fd5b7f4e487b7100000000000000000000000000000000000000000000000000000000600052604160045260246000fd5b612806826125e3565b810181811067ffffffffffffffff82111715612825576128246127ce565b5b80604052505050565b600061283861264f565b905061284482826127fd565b919050565b600067ffffffffffffffff821115612864576128636127ce565b5b61286d826125e3565b9050602081019050919050565b82818337600083830152505050565b600061289c61289784612849565b61282e565b9050828152602081018484840111156128b8576128b76127c9565b5b6128c384828561287a565b509392505050565b600082601f8301126128e0576128df612699565b5b81356128f0848260208601612889565b91505092915050565b600080604083850312156129105761290f612659565b5b600061291e858286016127b4565b925050602083013567ffffffffffffffff81111561293f5761293e61265e565b5b61294b858286016128cb565b9150509250929050565b60006020828403121561296b5761296a612659565b5b6000612979848285016127b4565b91505092915050565b600073ffffffffffffffffffffffffffffffffffffffff82169050919050565b60006129ad82612982565b9050919050565b6129bd816129a2565b82525050565b600081600b0b9050919050565b6129d9816129c3565b82525050565b60006040820190506129f460008301856129b4565b612a0160208301846129d0565b9392505050565b612a1181612663565b82525050565b6000602082019050612a2c6000830184612a08565b92915050565b6000602082019050612a4760008301846129b4565b92915050565b6000612a58826129a2565b9050919050565b612a6881612a4d565b8114612a7357600080fd5b50565b600081359050612a8581612a5f565b92915050565b612a94816129a2565b8114612a9f57600080fd5b50565b600081359050612ab181612a8b565b92915050565b60008083601f840112612acd57612acc612699565b5b8235905067ffffffffffffffff811115612aea57612ae961269e565b5b602083019150836001820283011115612b0657612b056126a3565b5b9250929050565b600080600080600080600080600060c08a8c031215612b2f57612b2e612659565b5b6000612b3d8c828d01612a76565b9950506020612b4e8c828d01612aa2565b9850506040612b5f8c828d01612684565b97505060608a013567ffffffffffffffff811115612b8057612b7f61265e565b5b612b8c8c828d01612ab7565b965096505060808a013567ffffffffffffffff811115612baf57612bae61265e565b5b612bbb8c828d01612ab7565b945094505060a08a013567ffffffffffffffff811115612bde57612bdd61265e565b5b612bea8c828d01612ab7565b92509250509295985092959850929598565b600081519050919050565b600082825260208201905092915050565b6000612c2382612bfc565b612c2d8185612c07565b9350612c3d8185602086016125b0565b612c46816125e3565b840191505092915050565b60006020820190508181036000830152612c6b8184612c18565b905092915050565b600080600080600080600060a0888a031215612c9257612c91612659565b5b6000612ca08a828b01612a76565b9750506020612cb18a828b01612aa2565b9650506040612cc28a828b01612684565b955050606088013567ffffffffffffffff811115612ce357612ce261265e565b5b612cef8a828b01612ab7565b9450945050608088013567ffffffffffffffff811115612d1257612d1161265e565b5b612d1e8a828b01612ab7565b925092505092959891949750929550565b6000602082019050612d4460008301846129d0565b92915050565b600080600060408486031215612d6357612d62612659565b5b6000612d7186828701612684565b935050602084013567ffffffffffffffff811115612d9257612d9161265e565b5b612d9e868287016126a8565b92509250509250925092565b612db381612793565b82525050565b6000602082019050612dce6000830184612daa565b92915050565b600081519050919050565b600082825260208201905092915050565b6000819050602082019050919050565b612e09816129a2565b82525050565b6000612e1b8383612e00565b60208301905092915050565b6000602082019050919050565b6000612e3f82612dd4565b612e498185612ddf565b9350612e5483612df0565b8060005b83811015612e85578151612e6c8882612e0f565b9750612e7783612e27565b925050600181019050612e58565b5085935050505092915050565b60006020820190508181036000830152612eac8184612e34565b905092915050565b612ebd816129c3565b8114612ec857600080fd5b50565b600081359050612eda81612eb4565b92915050565b600080600060608486031215612ef957612ef8612659565b5b6000612f0786828701612aa2565b9350506020612f18868287016127b4565b9250506040612f2986828701612ecb565b9150509250925092565b6000819050919050565b6000612f58612f53612f4e84612982565b612f33565b612982565b9050919050565b6000612f6a82612f3d565b9050919050565b6000612f7c82612f5f565b9050919050565b612f8c81612f71565b82525050565b6000602082019050612fa76000830184612f83565b92915050565b6000612fb882612f5f565b9050919050565b612fc881612fad565b82525050565b6000612fd982612f5f565b9050919050565b612fe981612fce565b82525050565b60006040820190506130046000830185612fbf565b6130116020830184612fe0565b9392505050565b6000806040838503121561302f5761302e612659565b5b600061303d858286016127b4565b925050602061304e85828601612ecb565b9150509250929050565b60006020828403121561306e5761306d612659565b5b600061307c84828501612aa2565b91505092915050565b600060208201905061309a6000830184612fbf565b92915050565b7f4e487b7100000000000000000000000000000000000000000000000000000000600052602260045260246000fd5b600060028204905060018216806130e757607f821691505b6020821081036130fa576130f96130a0565b5b50919050565b600081905092915050565b60006131178385613100565b935061312483858461287a565b82840190509392505050565b600061313d82848661310b565b91508190509392505050565b6000613155838561259f565b935061316283858461287a565b61316b836125e3565b840190509392505050565b60006020820190508181036000830152613191818486613149565b90509392505050565b7f4f776e61626c653a2063616c6c6572206973206e6f7420746865206f776e6572600082015250565b60006131d060208361259f565b91506131db8261319a565b602082019050919050565b600060208201905081810360008301526131ff816131c3565b9050919050565b7f45524337323155524953746f726167653a2055524920736574206f66206e6f6e60008201527f6578697374656e7420746f6b656e000000000000000000000000000000000000602082015250565b6000613262602e8361259f565b915061326d82613206565b604082019050919050565b6000602082019050818103600083015261329181613255565b9050919050565b7f5265646972656374416c6c3a206e6f7420616363657074656420746f6b656e00600082015250565b60006132ce601f8361259f565b91506132d982613298565b602082019050919050565b600060208201905081810360008301526132fd816132c1565b9050919050565b7f5265646972656374416c6c3a206f6e6c7920434641763120737570706f72746560008201527f6400000000000000000000000000000000000000000000000000000000000000602082015250565b600061336060218361259f565b915061336b82613304565b604082019050919050565b6000602082019050818103600083015261338f81613353565b9050919050565b7f4f6e6c7920686f73742063616e2063616c6c2063616c6c6261636b0000000000600082015250565b60006133cc601b8361259f565b91506133d782613396565b602082019050919050565b600060208201905081810360008301526133fb816133bf565b9050919050565b7f556e737570706f727465642063616c6c6261636b202d204265666f726520416760008201527f7265656d656e7420437265617465640000000000000000000000000000000000602082015250565b600061345e602f8361259f565b915061346982613402565b604082019050919050565b6000602082019050818103600083015261348d81613451565b9050919050565b7f556e737570706f727465642063616c6c6261636b202d20204265666f7265204160008201527f677265656d656e74205465726d696e6174656400000000000000000000000000602082015250565b60006134f060338361259f565b91506134fb82613494565b604082019050919050565b6000602082019050818103600083015261351f816134e3565b9050919050565b7f536f756c626f756e644e46543a206f776e657220717565727920666f72206e6f60008201527f6e6578697374656e7420746f6b656e0000000000000000000000000000000000602082015250565b6000613582602f8361259f565b915061358d82613526565b604082019050919050565b600060208201905081810360008301526135b181613575565b9050919050565b7f556e737570706f727465642063616c6c6261636b202d204265666f726520416760008201527f7265656d656e7420757064617465640000000000000000000000000000000000602082015250565b6000613614602f8361259f565b915061361f826135b8565b604082019050919050565b6000602082019050818103600083015261364381613607565b9050919050565b7f4e487b7100000000000000000000000000000000000000000000000000000000600052603260045260246000fd5b7f4e487b7100000000000000000000000000000000000000000000000000000000600052601160045260246000fd5b60006136b382612793565b91507fffffffffffffffffffffffffffffffffffffffffffffffffffffffffffffffff82036136e5576136e4613679565b5b600182019050919050565b60006136fb826129c3565b9150613706836129c3565b9250826b7fffffffffffffffffffffff048211600084136000841316161561373157613730613679565b5b817fffffffffffffffffffffffffffffffffffffffff800000000000000000000000058312600084126000841316161561376e5761376d613679565b5b827fffffffffffffffffffffffffffffffffffffffff80000000000000000000000005821260008413600084121616156137ab576137aa613679565b5b826b7fffffffffffffffffffffff05821260008412600084121616156137d4576137d3613679565b5b828202905092915050565b60006060820190506137f46000830186612f83565b61380160208301856129b4565b61380e60408301846129b4565b949350505050565b6000815190506138258161279d565b92915050565b60008151905061383a81612eb4565b92915050565b6000806000806080858703121561385a57613859612659565b5b600061386887828801613816565b94505060206138798782880161382b565b935050604061388a87828801613816565b925050606061389b87828801613816565b91505092959194509250565b60006138b2826129c3565b91506138bd836129c3565b9250816b7fffffffffffffffffffffff038313600083121516156138e4576138e3613679565b5b817fffffffffffffffffffffffffffffffffffffffff80000000000000000000000003831260008312161561391c5761391b613679565b5b828201905092915050565b6000613932826129c3565b915061393d836129c3565b9250827fffffffffffffffffffffffffffffffffffffffff8000000000000000000000000182126000841215161561397857613977613679565b5b826b7fffffffffffffffffffffff01821360008412161561399c5761399b613679565b5b828203905092915050565b7f4f776e61626c653a206e6577206f776e657220697320746865207a65726f206160008201527f6464726573730000000000000000000000000000000000000000000000000000602082015250565b6000613a0360268361259f565b9150613a0e826139a7565b604082019050919050565b60006020820190508181036000830152613a32816139f6565b9050919050565b600081519050613a488161266d565b92915050565b600060208284031215613a6457613a63612659565b5b6000613a7284828501613a39565b91505092915050565b7f536f756c626f756e644e46543a207472616e7366657220746f206e6f6e20536f60008201527f756c626f756e644e4654526563656976657220696d706c656d656e7465720000602082015250565b6000613ad7603e8361259f565b9150613ae282613a7b565b604082019050919050565b60006020820190508181036000830152613b0681613aca565b9050919050565b7f4552433732313a20696e76616c696420746f6b656e2049440000000000000000600082015250565b6000613b4360188361259f565b9150613b4e82613b0d565b602082019050919050565b60006020820190508181036000830152613b7281613b36565b9050919050565b7f536f756c626f756e644e46543a206d696e7420746f20746865207a65726f206160008201527f6464726573730000000000000000000000000000000000000000000000000000602082015250565b6000613bd560268361259f565b9150613be082613b79565b604082019050919050565b60006020820190508181036000830152613c0481613bc8565b9050919050565b7f536f756c626f756e644e46543a20746f6b656e20616c7265616479206d696e7460008201527f6564000000000000000000000000000000000000000000000000000000000000602082015250565b6000613c6760228361259f565b9150613c7282613c0b565b604082019050919050565b60006020820190508181036000830152613c9681613c5a565b9050919050565b6000608082019050613cb260008301876129b4565b613cbf60208301866129b4565b613ccc6040830185612daa565b8181036060830152613cde8184612c18565b905095945050505050565b60007fffffffff0000000000000000000000000000000000000000000000000000000082169050919050565b613d1e81613ce9565b8114613d2957600080fd5b50565b600081519050613d3b81613d15565b92915050565b600060208284031215613d5757613d56612659565b5b6000613d6584828501613d2c565b91505092915050565b7f536f756c626f756e643a207472616e7366657220746f206e6f6e20536f756c6260008201527f6f756e64526563656976657220696d706c656d656e7465720000000000000000602082015250565b6000613dca60388361259f565b9150613dd582613d6e565b604082019050919050565b60006020820190508181036000830152613df981613dbd565b9050919050565b6000613e0b82612f5f565b9050919050565b613e1b81613e00565b82525050565b6000608082019050613e366000830187613e12565b613e4360208301866129b4565b613e5060408301856129d0565b8181036060830152613e628184612c18565b905095945050505050565b6000606082019050613e826000830186612fe0565b8181036020830152613e948185612c18565b90508181036040830152613ea88184612c18565b9050949350505050565b600067ffffffffffffffff821115613ecd57613ecc6127ce565b5b613ed6826125e3565b9050602081019050919050565b6000613ef6613ef184613eb2565b61282e565b905082815260208101848484011115613f1257613f116127c9565b5b613f1d8482856125b0565b509392505050565b600082601f830112613f3a57613f39612699565b5b8151613f4a848260208601613ee3565b91505092915050565b600060208284031215613f6957613f68612659565b5b600082015167ffffffffffffffff811115613f8757613f8661265e565b5b613f9384828501613f25565b9150509291505056fea26469706673582212208c1c370f29c11148be3f14ba1c8cdea81f1446d6694bf2d285ef5e84ac4b8c9d64736f6c634300080e0033a26469706673582212201702924f94bbab96600c0266641585759c084724a63774274a1cc4bd26119bd764736f6c634300080e0033",
  "linkReferences": {},
  "deployedLinkReferences": {}
}