{
  "_format": "hh-sol-artifact-1",
  "contractName": "CompanayManager",
  "sourceName": "contracts/CompanyManager.sol",
  "abi": [
    {
      "inputs": [
        {
          "internalType": "string",
          "name": "name_",
          "type": "string"
        },
        {
          "internalType": "string",
          "name": "symbol_",
          "type": "string"
        },
        {
          "internalType": "contract ISuperToken",
          "name": "_payrollToken",
          "type": "address"
        },
        {
          "internalType": "contract ISuperfluid",
          "name": "_host",
          "type": "address"
        }
      ],
      "stateMutability": "nonpayable",
      "type": "constructor"
    },
    {
      "anonymous": false,
      "inputs": [
        {
          "indexed": true,
          "internalType": "address",
          "name": "previousOwner",
          "type": "address"
        },
        {
          "indexed": true,
          "internalType": "address",
          "name": "newOwner",
          "type": "address"
        }
      ],
      "name": "OwnershipTransferred",
      "type": "event"
    },
    {
      "anonymous": false,
      "inputs": [
        {
          "indexed": true,
          "internalType": "bytes32",
          "name": "node",
          "type": "bytes32"
        },
        {
          "indexed": true,
          "internalType": "string",
          "name": "indexedKey",
          "type": "string"
        },
        {
          "indexed": false,
          "internalType": "string",
          "name": "key",
          "type": "string"
        }
      ],
      "name": "TextChanged",
      "type": "event"
    },
    {
      "anonymous": false,
      "inputs": [
        {
          "indexed": true,
          "internalType": "address",
          "name": "from",
          "type": "address"
        },
        {
          "indexed": true,
          "internalType": "address",
          "name": "to",
          "type": "address"
        },
        {
          "indexed": true,
          "internalType": "uint256",
          "name": "tokenId",
          "type": "uint256"
        }
      ],
      "name": "Transfer",
      "type": "event"
    },
    {
      "inputs": [],
      "name": "CFA_ID",
      "outputs": [
        {
          "internalType": "bytes32",
          "name": "",
          "type": "bytes32"
        }
      ],
      "stateMutability": "view",
      "type": "function"
    },
    {
      "inputs": [
        {
          "internalType": "contract ISuperToken",
          "name": "_superToken",
          "type": "address"
        },
        {
          "internalType": "address",
          "name": "_agreementClass",
          "type": "address"
        },
        {
          "internalType": "bytes32",
          "name": "",
          "type": "bytes32"
        },
        {
          "internalType": "bytes",
          "name": "",
          "type": "bytes"
        },
        {
          "internalType": "bytes",
          "name": "",
          "type": "bytes"
        },
        {
          "internalType": "bytes",
          "name": "ctx",
          "type": "bytes"
        }
      ],
      "name": "afterAgreementCreated",
      "outputs": [
        {
          "internalType": "bytes",
          "name": "newCtx",
          "type": "bytes"
        }
      ],
      "stateMutability": "view",
      "type": "function"
    },
    {
      "inputs": [
        {
          "internalType": "contract ISuperToken",
          "name": "_superToken",
          "type": "address"
        },
        {
          "internalType": "address",
          "name": "_agreementClass",
          "type": "address"
        },
        {
          "internalType": "bytes32",
          "name": "",
          "type": "bytes32"
        },
        {
          "internalType": "bytes",
          "name": "",
          "type": "bytes"
        },
        {
          "internalType": "bytes",
          "name": "",
          "type": "bytes"
        },
        {
          "internalType": "bytes",
          "name": "ctx",
          "type": "bytes"
        }
      ],
      "name": "afterAgreementTerminated",
      "outputs": [
        {
          "internalType": "bytes",
          "name": "newCtx",
          "type": "bytes"
        }
      ],
      "stateMutability": "view",
      "type": "function"
    },
    {
      "inputs": [
        {
          "internalType": "contract ISuperToken",
          "name": "_superToken",
          "type": "address"
        },
        {
          "internalType": "address",
          "name": "_agreementClass",
          "type": "address"
        },
        {
          "internalType": "bytes32",
          "name": "",
          "type": "bytes32"
        },
        {
          "internalType": "bytes",
          "name": "",
          "type": "bytes"
        },
        {
          "internalType": "bytes",
          "name": "",
          "type": "bytes"
        },
        {
          "internalType": "bytes",
          "name": "ctx",
          "type": "bytes"
        }
      ],
      "name": "afterAgreementUpdated",
      "outputs": [
        {
          "internalType": "bytes",
          "name": "newCtx",
          "type": "bytes"
        }
      ],
      "stateMutability": "view",
      "type": "function"
    },
    {
      "inputs": [
        {
          "internalType": "contract ISuperToken",
          "name": "",
          "type": "address"
        },
        {
          "internalType": "address",
          "name": "",
          "type": "address"
        },
        {
          "internalType": "bytes32",
          "name": "",
          "type": "bytes32"
        },
        {
          "internalType": "bytes",
          "name": "",
          "type": "bytes"
        },
        {
          "internalType": "bytes",
          "name": "",
          "type": "bytes"
        }
      ],
      "name": "beforeAgreementCreated",
      "outputs": [
        {
          "internalType": "bytes",
          "name": "",
          "type": "bytes"
        }
      ],
      "stateMutability": "view",
      "type": "function"
    },
    {
      "inputs": [
        {
          "internalType": "contract ISuperToken",
          "name": "",
          "type": "address"
        },
        {
          "internalType": "address",
          "name": "",
          "type": "address"
        },
        {
          "internalType": "bytes32",
          "name": "",
          "type": "bytes32"
        },
        {
          "internalType": "bytes",
          "name": "",
          "type": "bytes"
        },
        {
          "internalType": "bytes",
          "name": "",
          "type": "bytes"
        }
      ],
      "name": "beforeAgreementTerminated",
      "outputs": [
        {
          "internalType": "bytes",
          "name": "",
          "type": "bytes"
        }
      ],
      "stateMutability": "view",
      "type": "function"
    },
    {
      "inputs": [
        {
          "internalType": "contract ISuperToken",
          "name": "",
          "type": "address"
        },
        {
          "internalType": "address",
          "name": "",
          "type": "address"
        },
        {
          "internalType": "bytes32",
          "name": "",
          "type": "bytes32"
        },
        {
          "internalType": "bytes",
          "name": "",
          "type": "bytes"
        },
        {
          "internalType": "bytes",
          "name": "",
          "type": "bytes"
        }
      ],
      "name": "beforeAgreementUpdated",
      "outputs": [
        {
          "internalType": "bytes",
          "name": "",
          "type": "bytes"
        }
      ],
      "stateMutability": "view",
      "type": "function"
    },
    {
      "inputs": [],
      "name": "cfaV1",
      "outputs": [
        {
          "internalType": "contract ISuperfluid",
          "name": "host",
          "type": "address"
        },
        {
          "internalType": "contract IConstantFlowAgreementV1",
          "name": "cfa",
          "type": "address"
        }
      ],
      "stateMutability": "view",
      "type": "function"
    },
    {
      "inputs": [],
      "name": "employeeCount",
      "outputs": [
        {
          "internalType": "uint256",
          "name": "",
          "type": "uint256"
        }
      ],
      "stateMutability": "view",
      "type": "function"
    },
    {
      "inputs": [],
      "name": "host",
      "outputs": [
        {
          "internalType": "contract ISuperfluid",
          "name": "",
          "type": "address"
        }
      ],
      "stateMutability": "view",
      "type": "function"
    },
    {
      "inputs": [],
      "name": "name",
      "outputs": [
        {
          "internalType": "string",
          "name": "",
          "type": "string"
        }
      ],
      "stateMutability": "view",
      "type": "function"
    },
    {
      "inputs": [],
      "name": "owner",
      "outputs": [
        {
          "internalType": "address",
          "name": "",
          "type": "address"
        }
      ],
      "stateMutability": "view",
      "type": "function"
    },
    {
      "inputs": [
        {
          "internalType": "uint256",
          "name": "tokenId",
          "type": "uint256"
        }
      ],
      "name": "ownerOf",
      "outputs": [
        {
          "internalType": "address",
          "name": "",
          "type": "address"
        }
      ],
      "stateMutability": "view",
      "type": "function"
    },
    {
      "inputs": [
        {
          "internalType": "uint256",
          "name": "",
          "type": "uint256"
        }
      ],
      "name": "payroll",
      "outputs": [
        {
          "internalType": "address",
          "name": "wallet",
          "type": "address"
        },
        {
          "internalType": "int96",
          "name": "flowRate",
          "type": "int96"
        }
      ],
      "stateMutability": "view",
      "type": "function"
    },
    {
      "inputs": [],
      "name": "payrollAddress",
      "outputs": [
        {
          "internalType": "address",
          "name": "",
          "type": "address"
        }
      ],
      "stateMutability": "view",
      "type": "function"
    },
    {
      "inputs": [],
      "name": "payrollToken",
      "outputs": [
        {
          "internalType": "contract ISuperToken",
          "name": "",
          "type": "address"
        }
      ],
      "stateMutability": "view",
      "type": "function"
    },
    {
      "inputs": [],
      "name": "renounceOwnership",
      "outputs": [],
      "stateMutability": "nonpayable",
      "type": "function"
    },
    {
      "inputs": [
        {
          "internalType": "address",
          "name": "to",
          "type": "address"
        },
        {
          "internalType": "uint256",
          "name": "tokenId",
          "type": "uint256"
        },
        {
          "internalType": "int96",
          "name": "montlyPayment",
          "type": "int96"
        }
      ],
      "name": "safeMint",
      "outputs": [],
      "stateMutability": "nonpayable",
      "type": "function"
    },
    {
      "inputs": [
        {
          "internalType": "bytes32",
          "name": "index",
          "type": "bytes32"
        },
        {
          "internalType": "string",
          "name": "key",
          "type": "string"
        },
        {
          "internalType": "string",
          "name": "value",
          "type": "string"
        }
      ],
      "name": "setText",
      "outputs": [],
      "stateMutability": "nonpayable",
      "type": "function"
    },
    {
      "inputs": [],
      "name": "symbol",
      "outputs": [
        {
          "internalType": "string",
          "name": "",
          "type": "string"
        }
      ],
      "stateMutability": "view",
      "type": "function"
    },
    {
      "inputs": [
        {
          "internalType": "bytes32",
          "name": "index",
          "type": "bytes32"
        },
        {
          "internalType": "string",
          "name": "key",
          "type": "string"
        }
      ],
      "name": "text",
      "outputs": [
        {
          "internalType": "string",
          "name": "",
          "type": "string"
        }
      ],
      "stateMutability": "view",
      "type": "function"
    },
    {
      "inputs": [
        {
          "internalType": "uint256",
          "name": "tokenId",
          "type": "uint256"
        }
      ],
      "name": "tokenURI",
      "outputs": [
        {
          "internalType": "string",
          "name": "",
          "type": "string"
        }
      ],
      "stateMutability": "view",
      "type": "function"
    },
    {
      "inputs": [],
      "name": "totalPayrollFlowRate",
      "outputs": [
        {
          "internalType": "int96",
          "name": "",
          "type": "int96"
        }
      ],
      "stateMutability": "view",
      "type": "function"
    },
    {
      "inputs": [
        {
          "internalType": "address",
          "name": "newOwner",
          "type": "address"
        }
      ],
      "name": "transferOwnership",
      "outputs": [],
      "stateMutability": "nonpayable",
      "type": "function"
    },
    {
      "inputs": [
        {
          "internalType": "uint256",
          "name": "employeeId",
          "type": "uint256"
        },
        {
          "internalType": "int96",
          "name": "daily_payment",
          "type": "int96"
        }
      ],
      "name": "updatePaymentFlow",
      "outputs": [],
      "stateMutability": "nonpayable",
      "type": "function"
    }
  ],
  "bytecode": "0x60c06040523480156200001157600080fd5b506040516200428638038062004286833981810160405281019062000037919062000758565b81818173ffffffffffffffffffffffffffffffffffffffff1660a08173ffffffffffffffffffffffffffffffffffffffff16815250508073ffffffffffffffffffffffffffffffffffffffff1660808173ffffffffffffffffffffffffffffffffffffffff168152505033600260006101000a81548173ffffffffffffffffffffffffffffffffffffffff021916908373ffffffffffffffffffffffffffffffffffffffff16021790555060006004819055506000600560006101000a8154816bffffffffffffffffffffffff0219169083600b0b6bffffffffffffffffffffffff16021790555060008173ffffffffffffffffffffffffffffffffffffffff1663b6d200de7fa9214cc96615e0085d3bb077758db69497dc2dce3b2b1e97bc93c3d18d83efd36040518263ffffffff1660e01b81526004016200017c919062000823565b602060405180830381865afa1580156200019a573d6000803e3d6000fd5b505050506040513d601f19601f82011682018060405250810190620001c0919062000885565b905060405180604001604052808373ffffffffffffffffffffffffffffffffffffffff1681526020018273ffffffffffffffffffffffffffffffffffffffff168152506000808201518160000160006101000a81548173ffffffffffffffffffffffffffffffffffffffff021916908373ffffffffffffffffffffffffffffffffffffffff16021790555060208201518160010160006101000a81548173ffffffffffffffffffffffffffffffffffffffff021916908373ffffffffffffffffffffffffffffffffffffffff1602179055509050506000641000000000640400000000640100000000600117171790508273ffffffffffffffffffffffffffffffffffffffff1663ad3915c8826040518263ffffffff1660e01b8152600401620002eb9190620008d2565b600060405180830381600087803b1580156200030657600080fd5b505af11580156200031b573d6000803e3d6000fd5b505050505050505062000343620003376200037f60201b60201c565b6200038760201b60201c565b83600790805190602001906200035b9291906200044d565b508260089080519060200190620003749291906200044d565b505050505062000953565b600033905090565b60006005600c9054906101000a900473ffffffffffffffffffffffffffffffffffffffff169050816005600c6101000a81548173ffffffffffffffffffffffffffffffffffffffff021916908373ffffffffffffffffffffffffffffffffffffffff1602179055508173ffffffffffffffffffffffffffffffffffffffff168173ffffffffffffffffffffffffffffffffffffffff167f8be0079c531659141344cd1fd0a4f28419497f9722a3daafe3b4186f6b6457e060405160405180910390a35050565b8280546200045b906200091e565b90600052602060002090601f0160209004810192826200047f5760008555620004cb565b82601f106200049a57805160ff1916838001178555620004cb565b82800160010185558215620004cb579182015b82811115620004ca578251825591602001919060010190620004ad565b5b509050620004da9190620004de565b5090565b5b80821115620004f9576000816000905550600101620004df565b5090565b6000604051905090565b600080fd5b600080fd5b600080fd5b600080fd5b6000601f19601f8301169050919050565b7f4e487b7100000000000000000000000000000000000000000000000000000000600052604160045260246000fd5b62000566826200051b565b810181811067ffffffffffffffff821117156200058857620005876200052c565b5b80604052505050565b60006200059d620004fd565b9050620005ab82826200055b565b919050565b600067ffffffffffffffff821115620005ce57620005cd6200052c565b5b620005d9826200051b565b9050602081019050919050565b60005b8381101562000606578082015181840152602081019050620005e9565b8381111562000616576000848401525b50505050565b6000620006336200062d84620005b0565b62000591565b90508281526020810184848401111562000652576200065162000516565b5b6200065f848285620005e6565b509392505050565b600082601f8301126200067f576200067e62000511565b5b8151620006918482602086016200061c565b91505092915050565b600073ffffffffffffffffffffffffffffffffffffffff82169050919050565b6000620006c7826200069a565b9050919050565b6000620006db82620006ba565b9050919050565b620006ed81620006ce565b8114620006f957600080fd5b50565b6000815190506200070d81620006e2565b92915050565b60006200072082620006ba565b9050919050565b620007328162000713565b81146200073e57600080fd5b50565b600081519050620007528162000727565b92915050565b6000806000806080858703121562000775576200077462000507565b5b600085015167ffffffffffffffff8111156200079657620007956200050c565b5b620007a48782880162000667565b945050602085015167ffffffffffffffff811115620007c857620007c76200050c565b5b620007d68782880162000667565b9350506040620007e987828801620006fc565b9250506060620007fc8782880162000741565b91505092959194509250565b6000819050919050565b6200081d8162000808565b82525050565b60006020820190506200083a600083018462000812565b92915050565b60006200084d82620006ba565b9050919050565b6200085f8162000840565b81146200086b57600080fd5b50565b6000815190506200087f8162000854565b92915050565b6000602082840312156200089e576200089d62000507565b5b6000620008ae848285016200086e565b91505092915050565b6000819050919050565b620008cc81620008b7565b82525050565b6000602082019050620008e96000830184620008c1565b92915050565b7f4e487b7100000000000000000000000000000000000000000000000000000000600052602260045260246000fd5b600060028204905060018216806200093757607f821691505b6020821081036200094d576200094c620008ef565b5b50919050565b60805160a0516138ea6200099c60003960008181610d1201528181610dec0152818161102b0152818161132c0152818161141a01526115e9015260006115c301526138ea6000f3fe608060405234801561001057600080fd5b50600436106101735760003560e01c8063715018a6116100de578063c87b56dd11610097578063d86ed3e511610071578063d86ed3e51461047a578063f1038c47146104aa578063f2fde38b146104c6578063f437bc59146104e257610173565b8063c87b56dd1461040d578063cf20c6d11461043d578063d3112b2e1461045b57610173565b8063715018a61461035d578063884d1f40146103675780638da5cb5b146103975780639047bf58146103b557806395d89b41146103d3578063b64214d6146103f157610173565b806330d9c9151161013057806330d9c9151461024f5780633884724e1461027f57806353c11f991461029d57806359d1d43c146102cd5780635f9e7d77146102fd5780636352211e1461032d57610173565b806306fdde031461017857806310f13a8c14610196578063189e2746146101b2578063215eed02146101e357806321aee35814610201578063230dbd291461021f575b600080fd5b610180610500565b60405161018d91906121e3565b60405180910390f35b6101b060048036038101906101ab91906122b4565b610592565b005b6101cc60048036038101906101c7919061237f565b61062c565b6040516101da929190612409565b60405180910390f35b6101eb61067d565b6040516101f89190612441565b60405180910390f35b6102096106a1565b604051610216919061245c565b60405180910390f35b61023960048036038101906102349190612537565b6106c7565b604051610246919061267b565b60405180910390f35b6102696004803603810190610264919061269d565b610843565b604051610276919061267b565b60405180910390f35b610287610880565b6040516102949190612759565b60405180910390f35b6102b760048036038101906102b29190612537565b610893565b6040516102c4919061267b565b60405180910390f35b6102e760048036038101906102e29190612774565b6109e8565b6040516102f491906121e3565b60405180910390f35b6103176004803603810190610312919061269d565b610aad565b604051610324919061267b565b60405180910390f35b6103476004803603810190610342919061237f565b610aea565b604051610354919061245c565b60405180910390f35b610365610b9b565b005b610381600480360381019061037c919061269d565b610baf565b60405161038e919061267b565b60405180910390f35b61039f610bec565b6040516103ac919061245c565b60405180910390f35b6103bd610c16565b6040516103ca91906127e3565b60405180910390f35b6103db610c1c565b6040516103e891906121e3565b60405180910390f35b61040b6004803603810190610406919061282a565b610cae565b005b6104276004803603810190610422919061237f565b610f75565b60405161043491906121e3565b60405180910390f35b610445611029565b60405161045291906128dc565b60405180910390f35b61046361104d565b604051610471929190612939565b60405180910390f35b610494600480360381019061048f9190612537565b61109f565b6040516104a1919061267b565b60405180910390f35b6104c460048036038101906104bf9190612962565b61121b565b005b6104e060048036038101906104db91906129a2565b61153e565b005b6104ea6115c1565b6040516104f791906129cf565b60405180910390f35b60606007805461050f90612a19565b80601f016020809104026020016040519081016040528092919081815260200182805461053b90612a19565b80156105885780601f1061055d57610100808354040283529160200191610588565b820191906000526020600020905b81548152906001019060200180831161056b57829003601f168201915b5050505050905090565b81816006600088815260200190815260200160002086866040516105b7929190612a89565b908152602001604051809103902091906105d29291906120a7565b5083836040516105e3929190612a89565b6040518091039020857fd8c9334b1a9c2f9da342a0a2b32629c1a229b6445dad78947f674b44444a7550868660405161061d929190612acf565b60405180910390a35050505050565b60036020528060005260406000206000915090508060000160009054906101000a900473ffffffffffffffffffffffffffffffffffffffff16908060000160149054906101000a9004600b0b905082565b7fa9214cc96615e0085d3bb077758db69497dc2dce3b2b1e97bc93c3d18d83efd381565b600260009054906101000a900473ffffffffffffffffffffffffffffffffffffffff1681565b606089896106d4826115e5565b610713576040517f08c379a000000000000000000000000000000000000000000000000000000000815260040161070a90612b3f565b60405180910390fd5b61071c8161163d565b61075b576040517f08c379a000000000000000000000000000000000000000000000000000000000815260040161075290612bd1565b60405180910390fd5b6000800160009054906101000a900473ffffffffffffffffffffffffffffffffffffffff1673ffffffffffffffffffffffffffffffffffffffff163373ffffffffffffffffffffffffffffffffffffffff16146107ed576040517f08c379a00000000000000000000000000000000000000000000000000000000081526004016107e490612c3d565b60405180910390fd5b84848080601f016020809104026020016040519081016040528093929190818152602001838380828437600081840152601f19601f82011690508083019250505050505050925050509998505050505050505050565b60606040517f08c379a000000000000000000000000000000000000000000000000000000000815260040161087790612ccf565b60405180910390fd5b600560009054906101000a9004600b0b81565b60606000800160009054906101000a900473ffffffffffffffffffffffffffffffffffffffff1673ffffffffffffffffffffffffffffffffffffffff163373ffffffffffffffffffffffffffffffffffffffff1614610927576040517f08c379a000000000000000000000000000000000000000000000000000000000815260040161091e90612c3d565b60405180910390fd5b6109308961163d565b158061094257506109408a6115e5565b155b156109935782828080601f016020809104026020016040519081016040528093929190818152602001838380828437600081840152601f19601f8201169050808301925050505050505090506109db565b82828080601f016020809104026020016040519081016040528093929190818152602001838380828437600081840152601f19601f8201169050808301925050505050505090505b9998505050505050505050565b6060600660008581526020019081526020016000208383604051610a0d929190612a89565b90815260200160405180910390208054610a2690612a19565b80601f0160208091040260200160405190810160405280929190818152602001828054610a5290612a19565b8015610a9f5780601f10610a7457610100808354040283529160200191610a9f565b820191906000526020600020905b815481529060010190602001808311610a8257829003601f168201915b505050505090509392505050565b60606040517f08c379a0000000000000000000000000000000000000000000000000000000008152600401610ae190612d61565b60405180910390fd5b6000806009600084815260200190815260200160002060009054906101000a900473ffffffffffffffffffffffffffffffffffffffff169050600073ffffffffffffffffffffffffffffffffffffffff168173ffffffffffffffffffffffffffffffffffffffff1603610b92576040517f08c379a0000000000000000000000000000000000000000000000000000000008152600401610b8990612df3565b60405180910390fd5b80915050919050565b610ba36116d7565b610bad6000611755565b565b60606040517f08c379a0000000000000000000000000000000000000000000000000000000008152600401610be390612e85565b60405180910390fd5b60006005600c9054906101000a900473ffffffffffffffffffffffffffffffffffffffff16905090565b60045481565b606060088054610c2b90612a19565b80601f0160208091040260200160405190810160405280929190818152602001828054610c5790612a19565b8015610ca45780601f10610c7957610100808354040283529160200191610ca4565b820191906000526020600020905b815481529060010190602001808311610c8757829003601f168201915b5050505050905090565b610cb66116d7565b82816000650a86cc91c28082610ccc9190612ed4565b905060008060010160009054906101000a900473ffffffffffffffffffffffffffffffffffffffff1673ffffffffffffffffffffffffffffffffffffffff1663e6a1e8887f0000000000000000000000000000000000000000000000000000000000000000600260009054906101000a900473ffffffffffffffffffffffffffffffffffffffff16306040518463ffffffff1660e01b8152600401610d7393929190612fc3565b608060405180830381865afa158015610d90573d6000803e3d6000fd5b505050506040513d601f19601f82011682018060405250810190610db49190613024565b505091505081600560009054906101000a9004600b0b610dd4919061308b565b600b0b81600b0b1215610de657600080fd5b610e1e847f000000000000000000000000000000000000000000000000000000000000000084600061181b909392919063ffffffff16565b81600560008282829054906101000a9004600b0b610e3c919061308b565b92506101000a8154816bffffffffffffffffffffffff0219169083600b0b6bffffffffffffffffffffffff160217905550600060405180604001604052808673ffffffffffffffffffffffffffffffffffffffff16815260200184600b0b815250905060046000815480929190610eb29061310b565b91905055508060036000600454815260200190815260200160002060008201518160000160006101000a81548173ffffffffffffffffffffffffffffffffffffffff021916908373ffffffffffffffffffffffffffffffffffffffff16021790555060208201518160000160146101000a8154816bffffffffffffffffffffffff0219169083600b0b6bffffffffffffffffffffffff160217905550905050610f6b88886040518060200160405280600081525061187b565b5050505050505050565b6060610f80826118d6565b6000600a60008481526020019081526020016000208054610fa090612a19565b80601f0160208091040260200160405190810160405280929190818152602001828054610fcc90612a19565b80156110195780601f10610fee57610100808354040283529160200191611019565b820191906000526020600020905b815481529060010190602001808311610ffc57829003601f168201915b5050505050905080915050919050565b7f000000000000000000000000000000000000000000000000000000000000000081565b60008060000160009054906101000a900473ffffffffffffffffffffffffffffffffffffffff16908060010160009054906101000a900473ffffffffffffffffffffffffffffffffffffffff16905082565b606089896110ac826115e5565b6110eb576040517f08c379a00000000000000000000000000000000000000000000000000000000081526004016110e290612b3f565b60405180910390fd5b6110f48161163d565b611133576040517f08c379a000000000000000000000000000000000000000000000000000000000815260040161112a90612bd1565b60405180910390fd5b6000800160009054906101000a900473ffffffffffffffffffffffffffffffffffffffff1673ffffffffffffffffffffffffffffffffffffffff163373ffffffffffffffffffffffffffffffffffffffff16146111c5576040517f08c379a00000000000000000000000000000000000000000000000000000000081526004016111bc90612c3d565b60405180910390fd5b84848080601f016020809104026020016040519081016040528093929190818152602001838380828437600081840152601f19601f82011690508083019250505050505050925050509998505050505050505050565b6000650a86cc91c2808261122f9190612ed4565b90506000600360008581526020019081526020016000206040518060400160405290816000820160009054906101000a900473ffffffffffffffffffffffffffffffffffffffff1673ffffffffffffffffffffffffffffffffffffffff1673ffffffffffffffffffffffffffffffffffffffff1681526020016000820160149054906101000a9004600b0b600b0b600b0b815250509050600081602001519050600082600001519050600082856112e69190613153565b905060008060010160009054906101000a900473ffffffffffffffffffffffffffffffffffffffff1673ffffffffffffffffffffffffffffffffffffffff1663e6a1e8887f000000000000000000000000000000000000000000000000000000000000000030866040518463ffffffff1660e01b815260040161136b93929190612fc3565b608060405180830381865afa158015611388573d6000803e3d6000fd5b505050506040513d601f19601f820116820180604052508101906113ac9190613024565b505091505081600560009054906101000a9004600b0b6113cc919061308b565b600b0b81600b0b12156113de57600080fd5b60006040518060400160405280876000015173ffffffffffffffffffffffffffffffffffffffff16815260200188600b0b815250905061144c847f0000000000000000000000000000000000000000000000000000000000000000896000611921909392919063ffffffff16565b80600360008b815260200190815260200160002060008201518160000160006101000a81548173ffffffffffffffffffffffffffffffffffffffff021916908373ffffffffffffffffffffffffffffffffffffffff16021790555060208201518160000160146101000a8154816bffffffffffffffffffffffff0219169083600b0b6bffffffffffffffffffffffff16021790555090505082600560008282829054906101000a9004600b0b611502919061308b565b92506101000a8154816bffffffffffffffffffffffff0219169083600b0b6bffffffffffffffffffffffff160217905550505050505050505050565b6115466116d7565b600073ffffffffffffffffffffffffffffffffffffffff168173ffffffffffffffffffffffffffffffffffffffff16036115b5576040517f08c379a00000000000000000000000000000000000000000000000000000000081526004016115ac90613245565b60405180910390fd5b6115be81611755565b50565b7f000000000000000000000000000000000000000000000000000000000000000081565b60007f000000000000000000000000000000000000000000000000000000000000000073ffffffffffffffffffffffffffffffffffffffff168273ffffffffffffffffffffffffffffffffffffffff16149050919050565b60007fa9214cc96615e0085d3bb077758db69497dc2dce3b2b1e97bc93c3d18d83efd38273ffffffffffffffffffffffffffffffffffffffff16637730599e6040518163ffffffff1660e01b8152600401602060405180830381865afa1580156116ab573d6000803e3d6000fd5b505050506040513d601f19601f820116820180604052508101906116cf919061327a565b149050919050565b6116df611981565b73ffffffffffffffffffffffffffffffffffffffff166116fd610bec565b73ffffffffffffffffffffffffffffffffffffffff1614611753576040517f08c379a000000000000000000000000000000000000000000000000000000000815260040161174a906132f3565b60405180910390fd5b565b60006005600c9054906101000a900473ffffffffffffffffffffffffffffffffffffffff169050816005600c6101000a81548173ffffffffffffffffffffffffffffffffffffffff021916908373ffffffffffffffffffffffffffffffffffffffff1602179055508173ffffffffffffffffffffffffffffffffffffffff168173ffffffffffffffffffffffffffffffffffffffff167f8be0079c531659141344cd1fd0a4f28419497f9722a3daafe3b4186f6b6457e060405160405180910390a35050565b61187584848484600067ffffffffffffffff81111561183d5761183c613313565b5b6040519080825280601f01601f19166020018201604052801561186f5781602001600182028036833780820191505090505b50611989565b50505050565b6118858383611b43565b6118926000848484611ccd565b6118d1576040517f08c379a00000000000000000000000000000000000000000000000000000000081526004016118c8906133b4565b60405180910390fd5b505050565b6118df81611e54565b61191e576040517f08c379a000000000000000000000000000000000000000000000000000000000815260040161191590613420565b60405180910390fd5b50565b61197b84848484600067ffffffffffffffff81111561194357611942613313565b5b6040519080825280601f01601f1916602001820160405280156119755781602001600182028036833780820191505090505b50611ec0565b50505050565b600033905090565b8460000160009054906101000a900473ffffffffffffffffffffffffffffffffffffffff1673ffffffffffffffffffffffffffffffffffffffff166339255d5b8660010160009054906101000a900473ffffffffffffffffffffffffffffffffffffffff168760010160009054906101000a900473ffffffffffffffffffffffffffffffffffffffff1673ffffffffffffffffffffffffffffffffffffffff166362fc305e878988600067ffffffffffffffff811115611a4c57611a4b613313565b5b6040519080825280601f01601f191660200182016040528015611a7e5781602001600182028036833780820191505090505b50604051602401611a929493929190613461565b604051602081830303815290604052915060e01b6020820180517bffffffffffffffffffffffffffffffffffffffffffffffffffffffff8381831617835250505050846040518463ffffffff1660e01b8152600401611af3939291906134ad565b6000604051808303816000875af1158015611b12573d6000803e3d6000fd5b505050506040513d6000823e3d601f19601f82011682018060405250810190611b3b91906135e4565b505050505050565b611b4b6116d7565b600073ffffffffffffffffffffffffffffffffffffffff168273ffffffffffffffffffffffffffffffffffffffff1603611bba576040517f08c379a0000000000000000000000000000000000000000000000000000000008152600401611bb19061369f565b60405180910390fd5b611bc381611e54565b15611c03576040517f08c379a0000000000000000000000000000000000000000000000000000000008152600401611bfa90613731565b60405180910390fd5b611c0f6000838361207a565b816009600083815260200190815260200160002060006101000a81548173ffffffffffffffffffffffffffffffffffffffff021916908373ffffffffffffffffffffffffffffffffffffffff160217905550808273ffffffffffffffffffffffffffffffffffffffff16600073ffffffffffffffffffffffffffffffffffffffff167fddf252ad1be2c89b69c2b068fc378daa952ba7f163c4a11628f55a4df523b3ef60405160405180910390a4611cc96000838361207f565b5050565b6000611cee8473ffffffffffffffffffffffffffffffffffffffff16612084565b15611e47578373ffffffffffffffffffffffffffffffffffffffff1663bdf4bff6611d17611981565b8786866040518563ffffffff1660e01b8152600401611d399493929190613751565b6020604051808303816000875af1925050508015611d7557506040513d601f19601f82011682018060405250810190611d7291906137f5565b60015b611df7573d8060008114611da5576040519150601f19603f3d011682016040523d82523d6000602084013e611daa565b606091505b506000815103611def576040517f08c379a0000000000000000000000000000000000000000000000000000000008152600401611de690613894565b60405180910390fd5b805181602001fd5b63bdf4bff660e01b7bffffffffffffffffffffffffffffffffffffffffffffffffffffffff1916817bffffffffffffffffffffffffffffffffffffffffffffffffffffffff191614915050611e4c565b600190505b949350505050565b60008073ffffffffffffffffffffffffffffffffffffffff166009600084815260200190815260200160002060009054906101000a900473ffffffffffffffffffffffffffffffffffffffff1673ffffffffffffffffffffffffffffffffffffffff1614159050919050565b8460000160009054906101000a900473ffffffffffffffffffffffffffffffffffffffff1673ffffffffffffffffffffffffffffffffffffffff166339255d5b8660010160009054906101000a900473ffffffffffffffffffffffffffffffffffffffff168760010160009054906101000a900473ffffffffffffffffffffffffffffffffffffffff1673ffffffffffffffffffffffffffffffffffffffff166350209a62878988600067ffffffffffffffff811115611f8357611f82613313565b5b6040519080825280601f01601f191660200182016040528015611fb55781602001600182028036833780820191505090505b50604051602401611fc99493929190613461565b604051602081830303815290604052915060e01b6020820180517bffffffffffffffffffffffffffffffffffffffffffffffffffffffff8381831617835250505050846040518463ffffffff1660e01b815260040161202a939291906134ad565b6000604051808303816000875af1158015612049573d6000803e3d6000fd5b505050506040513d6000823e3d601f19601f8201168201806040525081019061207291906135e4565b505050505050565b505050565b505050565b6000808273ffffffffffffffffffffffffffffffffffffffff163b119050919050565b8280546120b390612a19565b90600052602060002090601f0160209004810192826120d5576000855561211c565b82601f106120ee57803560ff191683800117855561211c565b8280016001018555821561211c579182015b8281111561211b578235825591602001919060010190612100565b5b509050612129919061212d565b5090565b5b8082111561214657600081600090555060010161212e565b5090565b600081519050919050565b600082825260208201905092915050565b60005b83811015612184578082015181840152602081019050612169565b83811115612193576000848401525b50505050565b6000601f19601f8301169050919050565b60006121b58261214a565b6121bf8185612155565b93506121cf818560208601612166565b6121d881612199565b840191505092915050565b600060208201905081810360008301526121fd81846121aa565b905092915050565b6000604051905090565b600080fd5b600080fd5b6000819050919050565b61222c81612219565b811461223757600080fd5b50565b60008135905061224981612223565b92915050565b600080fd5b600080fd5b600080fd5b60008083601f8401126122745761227361224f565b5b8235905067ffffffffffffffff81111561229157612290612254565b5b6020830191508360018202830111156122ad576122ac612259565b5b9250929050565b6000806000806000606086880312156122d0576122cf61220f565b5b60006122de8882890161223a565b955050602086013567ffffffffffffffff8111156122ff576122fe612214565b5b61230b8882890161225e565b9450945050604086013567ffffffffffffffff81111561232e5761232d612214565b5b61233a8882890161225e565b92509250509295509295909350565b6000819050919050565b61235c81612349565b811461236757600080fd5b50565b60008135905061237981612353565b92915050565b6000602082840312156123955761239461220f565b5b60006123a38482850161236a565b91505092915050565b600073ffffffffffffffffffffffffffffffffffffffff82169050919050565b60006123d7826123ac565b9050919050565b6123e7816123cc565b82525050565b600081600b0b9050919050565b612403816123ed565b82525050565b600060408201905061241e60008301856123de565b61242b60208301846123fa565b9392505050565b61243b81612219565b82525050565b60006020820190506124566000830184612432565b92915050565b600060208201905061247160008301846123de565b92915050565b6000612482826123cc565b9050919050565b61249281612477565b811461249d57600080fd5b50565b6000813590506124af81612489565b92915050565b6124be816123cc565b81146124c957600080fd5b50565b6000813590506124db816124b5565b92915050565b60008083601f8401126124f7576124f661224f565b5b8235905067ffffffffffffffff81111561251457612513612254565b5b6020830191508360018202830111156125305761252f612259565b5b9250929050565b600080600080600080600080600060c08a8c0312156125595761255861220f565b5b60006125678c828d016124a0565b99505060206125788c828d016124cc565b98505060406125898c828d0161223a565b97505060608a013567ffffffffffffffff8111156125aa576125a9612214565b5b6125b68c828d016124e1565b965096505060808a013567ffffffffffffffff8111156125d9576125d8612214565b5b6125e58c828d016124e1565b945094505060a08a013567ffffffffffffffff81111561260857612607612214565b5b6126148c828d016124e1565b92509250509295985092959850929598565b600081519050919050565b600082825260208201905092915050565b600061264d82612626565b6126578185612631565b9350612667818560208601612166565b61267081612199565b840191505092915050565b600060208201905081810360008301526126958184612642565b905092915050565b600080600080600080600060a0888a0312156126bc576126bb61220f565b5b60006126ca8a828b016124a0565b97505060206126db8a828b016124cc565b96505060406126ec8a828b0161223a565b955050606088013567ffffffffffffffff81111561270d5761270c612214565b5b6127198a828b016124e1565b9450945050608088013567ffffffffffffffff81111561273c5761273b612214565b5b6127488a828b016124e1565b925092505092959891949750929550565b600060208201905061276e60008301846123fa565b92915050565b60008060006040848603121561278d5761278c61220f565b5b600061279b8682870161223a565b935050602084013567ffffffffffffffff8111156127bc576127bb612214565b5b6127c88682870161225e565b92509250509250925092565b6127dd81612349565b82525050565b60006020820190506127f860008301846127d4565b92915050565b612807816123ed565b811461281257600080fd5b50565b600081359050612824816127fe565b92915050565b6000806000606084860312156128435761284261220f565b5b6000612851868287016124cc565b93505060206128628682870161236a565b925050604061287386828701612815565b9150509250925092565b6000819050919050565b60006128a261289d612898846123ac565b61287d565b6123ac565b9050919050565b60006128b482612887565b9050919050565b60006128c6826128a9565b9050919050565b6128d6816128bb565b82525050565b60006020820190506128f160008301846128cd565b92915050565b6000612902826128a9565b9050919050565b612912816128f7565b82525050565b6000612923826128a9565b9050919050565b61293381612918565b82525050565b600060408201905061294e6000830185612909565b61295b602083018461292a565b9392505050565b600080604083850312156129795761297861220f565b5b60006129878582860161236a565b925050602061299885828601612815565b9150509250929050565b6000602082840312156129b8576129b761220f565b5b60006129c6848285016124cc565b91505092915050565b60006020820190506129e46000830184612909565b92915050565b7f4e487b7100000000000000000000000000000000000000000000000000000000600052602260045260246000fd5b60006002820490506001821680612a3157607f821691505b602082108103612a4457612a436129ea565b5b50919050565b600081905092915050565b82818337600083830152505050565b6000612a708385612a4a565b9350612a7d838584612a55565b82840190509392505050565b6000612a96828486612a64565b91508190509392505050565b6000612aae8385612155565b9350612abb838584612a55565b612ac483612199565b840190509392505050565b60006020820190508181036000830152612aea818486612aa2565b90509392505050565b7f5265646972656374416c6c3a206e6f7420616363657074656420746f6b656e00600082015250565b6000612b29601f83612155565b9150612b3482612af3565b602082019050919050565b60006020820190508181036000830152612b5881612b1c565b9050919050565b7f5265646972656374416c6c3a206f6e6c7920434641763120737570706f72746560008201527f6400000000000000000000000000000000000000000000000000000000000000602082015250565b6000612bbb602183612155565b9150612bc682612b5f565b604082019050919050565b60006020820190508181036000830152612bea81612bae565b9050919050565b7f4f6e6c7920686f73742063616e2063616c6c2063616c6c6261636b0000000000600082015250565b6000612c27601b83612155565b9150612c3282612bf1565b602082019050919050565b60006020820190508181036000830152612c5681612c1a565b9050919050565b7f556e737570706f727465642063616c6c6261636b202d204265666f726520416760008201527f7265656d656e7420437265617465640000000000000000000000000000000000602082015250565b6000612cb9602f83612155565b9150612cc482612c5d565b604082019050919050565b60006020820190508181036000830152612ce881612cac565b9050919050565b7f556e737570706f727465642063616c6c6261636b202d20204265666f7265204160008201527f677265656d656e74205465726d696e6174656400000000000000000000000000602082015250565b6000612d4b603383612155565b9150612d5682612cef565b604082019050919050565b60006020820190508181036000830152612d7a81612d3e565b9050919050565b7f536f756c626f756e644e46543a206f776e657220717565727920666f72206e6f60008201527f6e6578697374656e7420746f6b656e0000000000000000000000000000000000602082015250565b6000612ddd602f83612155565b9150612de882612d81565b604082019050919050565b60006020820190508181036000830152612e0c81612dd0565b9050919050565b7f556e737570706f727465642063616c6c6261636b202d204265666f726520416760008201527f7265656d656e7420757064617465640000000000000000000000000000000000602082015250565b6000612e6f602f83612155565b9150612e7a82612e13565b604082019050919050565b60006020820190508181036000830152612e9e81612e62565b9050919050565b7f4e487b7100000000000000000000000000000000000000000000000000000000600052601160045260246000fd5b6000612edf826123ed565b9150612eea836123ed565b9250826b7fffffffffffffffffffffff0482116000841360008413161615612f1557612f14612ea5565b5b817fffffffffffffffffffffffffffffffffffffffff8000000000000000000000000583126000841260008413161615612f5257612f51612ea5565b5b827fffffffffffffffffffffffffffffffffffffffff8000000000000000000000000582126000841360008412161615612f8f57612f8e612ea5565b5b826b7fffffffffffffffffffffff0582126000841260008412161615612fb857612fb7612ea5565b5b828202905092915050565b6000606082019050612fd860008301866128cd565b612fe560208301856123de565b612ff260408301846123de565b949350505050565b60008151905061300981612353565b92915050565b60008151905061301e816127fe565b92915050565b6000806000806080858703121561303e5761303d61220f565b5b600061304c87828801612ffa565b945050602061305d8782880161300f565b935050604061306e87828801612ffa565b925050606061307f87828801612ffa565b91505092959194509250565b6000613096826123ed565b91506130a1836123ed565b9250816b7fffffffffffffffffffffff038313600083121516156130c8576130c7612ea5565b5b817fffffffffffffffffffffffffffffffffffffffff800000000000000000000000038312600083121615613100576130ff612ea5565b5b828201905092915050565b600061311682612349565b91507fffffffffffffffffffffffffffffffffffffffffffffffffffffffffffffffff820361314857613147612ea5565b5b600182019050919050565b600061315e826123ed565b9150613169836123ed565b9250827fffffffffffffffffffffffffffffffffffffffff800000000000000000000000018212600084121516156131a4576131a3612ea5565b5b826b7fffffffffffffffffffffff0182136000841216156131c8576131c7612ea5565b5b828203905092915050565b7f4f776e61626c653a206e6577206f776e657220697320746865207a65726f206160008201527f6464726573730000000000000000000000000000000000000000000000000000602082015250565b600061322f602683612155565b915061323a826131d3565b604082019050919050565b6000602082019050818103600083015261325e81613222565b9050919050565b60008151905061327481612223565b92915050565b6000602082840312156132905761328f61220f565b5b600061329e84828501613265565b91505092915050565b7f4f776e61626c653a2063616c6c6572206973206e6f7420746865206f776e6572600082015250565b60006132dd602083612155565b91506132e8826132a7565b602082019050919050565b6000602082019050818103600083015261330c816132d0565b9050919050565b7f4e487b7100000000000000000000000000000000000000000000000000000000600052604160045260246000fd5b7f536f756c626f756e644e46543a207472616e7366657220746f206e6f6e20536f60008201527f756c626f756e644e4654526563656976657220696d706c656d656e7465720000602082015250565b600061339e603e83612155565b91506133a982613342565b604082019050919050565b600060208201905081810360008301526133cd81613391565b9050919050565b7f4552433732313a20696e76616c696420746f6b656e2049440000000000000000600082015250565b600061340a601883612155565b9150613415826133d4565b602082019050919050565b60006020820190508181036000830152613439816133fd565b9050919050565b600061344b826128a9565b9050919050565b61345b81613440565b82525050565b60006080820190506134766000830187613452565b61348360208301866123de565b61349060408301856123fa565b81810360608301526134a28184612642565b905095945050505050565b60006060820190506134c2600083018661292a565b81810360208301526134d48185612642565b905081810360408301526134e88184612642565b9050949350505050565b600080fd5b61350082612199565b810181811067ffffffffffffffff8211171561351f5761351e613313565b5b80604052505050565b6000613532612205565b905061353e82826134f7565b919050565b600067ffffffffffffffff82111561355e5761355d613313565b5b61356782612199565b9050602081019050919050565b600061358761358284613543565b613528565b9050828152602081018484840111156135a3576135a26134f2565b5b6135ae848285612166565b509392505050565b600082601f8301126135cb576135ca61224f565b5b81516135db848260208601613574565b91505092915050565b6000602082840312156135fa576135f961220f565b5b600082015167ffffffffffffffff81111561361857613617612214565b5b613624848285016135b6565b91505092915050565b7f536f756c626f756e644e46543a206d696e7420746f20746865207a65726f206160008201527f6464726573730000000000000000000000000000000000000000000000000000602082015250565b6000613689602683612155565b91506136948261362d565b604082019050919050565b600060208201905081810360008301526136b88161367c565b9050919050565b7f536f756c626f756e644e46543a20746f6b656e20616c7265616479206d696e7460008201527f6564000000000000000000000000000000000000000000000000000000000000602082015250565b600061371b602283612155565b9150613726826136bf565b604082019050919050565b6000602082019050818103600083015261374a8161370e565b9050919050565b600060808201905061376660008301876123de565b61377360208301866123de565b61378060408301856127d4565b81810360608301526137928184612642565b905095945050505050565b60007fffffffff0000000000000000000000000000000000000000000000000000000082169050919050565b6137d28161379d565b81146137dd57600080fd5b50565b6000815190506137ef816137c9565b92915050565b60006020828403121561380b5761380a61220f565b5b6000613819848285016137e0565b91505092915050565b7f536f756c626f756e643a207472616e7366657220746f206e6f6e20536f756c6260008201527f6f756e64526563656976657220696d706c656d656e7465720000000000000000602082015250565b600061387e603883612155565b915061388982613822565b604082019050919050565b600060208201905081810360008301526138ad81613871565b905091905056fea26469706673582212202f4528080f87a2ffe12769e50d48035c786ac45c0d5ab398ec759cdb2a756bfb64736f6c634300080e0033",
  "linkReferences": {},
  "deployedLinkReferences": {}
}