{
  "_format": "hh-sol-artifact-1",
  "contractName": "CompanyManagerFactory",
  "sourceName": "contracts/CompanyManagerFactory.sol",
  "abi": [
    {
      "inputs": [
        {
          "internalType": "uint256",
          "name": "",
          "type": "uint256"
        }
      ],
      "name": "companayManagerArray",
      "outputs": [
        {
          "internalType": "contract CompanayManager",
          "name": "",
          "type": "address"
        }
      ],
      "stateMutability": "view",
      "type": "function"
    },
    {
      "inputs": [
        {
          "internalType": "string",
          "name": "name_",
          "type": "string"
        },
        {
          "internalType": "string",
          "name": "symbol_",
          "type": "string"
        }
      ],
      "name": "createCompanyManagerContract",
      "outputs": [],
      "stateMutability": "nonpayable",
      "type": "function"
    },
    {
      "inputs": [
        {
          "internalType": "uint256",
          "name": "_index",
          "type": "uint256"
        }
      ],
      "name": "getCompanyManagerContract",
      "outputs": [
        {
          "internalType": "address",
          "name": "",
          "type": "address"
        }
      ],
      "stateMutability": "view",
      "type": "function"
    }
  ],
  "bytecode": "0x608060405234801561001057600080fd5b50611af6806100206000396000f3fe60806040523480156200001157600080fd5b5060043610620000465760003560e01c806363eea6ff146200004b5780637365c9f11462000081578063c115ffe114620000a1575b600080fd5b62000069600480360381019062000063919062000265565b620000d7565b604051620000789190620002dc565b60405180910390f35b6200009f60048036038101906200009991906200045b565b62000121565b005b620000bf6004803603810190620000b9919062000265565b620001c8565b604051620000ce91906200054b565b60405180910390f35b6000808281548110620000ef57620000ee62000568565b5b9060005260206000200160009054906101000a900473ffffffffffffffffffffffffffffffffffffffff169050919050565b60008282604051620001339062000208565b620001409291906200062a565b604051809103906000f0801580156200015d573d6000803e3d6000fd5b5090506000819080600181540180825580915050600190039060005260206000200160009091909190916101000a81548173ffffffffffffffffffffffffffffffffffffffff021916908373ffffffffffffffffffffffffffffffffffffffff160217905550505050565b60008181548110620001d957600080fd5b906000526020600020016000915054906101000a900473ffffffffffffffffffffffffffffffffffffffff1681565b61145b806200066683390190565b6000604051905090565b600080fd5b600080fd5b6000819050919050565b6200023f816200022a565b81146200024b57600080fd5b50565b6000813590506200025f8162000234565b92915050565b6000602082840312156200027e576200027d62000220565b5b60006200028e848285016200024e565b91505092915050565b600073ffffffffffffffffffffffffffffffffffffffff82169050919050565b6000620002c48262000297565b9050919050565b620002d681620002b7565b82525050565b6000602082019050620002f36000830184620002cb565b92915050565b600080fd5b600080fd5b6000601f19601f8301169050919050565b7f4e487b7100000000000000000000000000000000000000000000000000000000600052604160045260246000fd5b6200034e8262000303565b810181811067ffffffffffffffff8211171562000370576200036f62000314565b5b80604052505050565b60006200038562000216565b905062000393828262000343565b919050565b600067ffffffffffffffff821115620003b657620003b562000314565b5b620003c18262000303565b9050602081019050919050565b82818337600083830152505050565b6000620003f4620003ee8462000398565b62000379565b905082815260208101848484011115620004135762000412620002fe565b5b62000420848285620003ce565b509392505050565b600082601f83011262000440576200043f620002f9565b5b813562000452848260208601620003dd565b91505092915050565b6000806040838503121562000475576200047462000220565b5b600083013567ffffffffffffffff81111562000496576200049562000225565b5b620004a48582860162000428565b925050602083013567ffffffffffffffff811115620004c857620004c762000225565b5b620004d68582860162000428565b9150509250929050565b6000819050919050565b60006200050b62000505620004ff8462000297565b620004e0565b62000297565b9050919050565b60006200051f82620004ea565b9050919050565b6000620005338262000512565b9050919050565b620005458162000526565b82525050565b60006020820190506200056260008301846200053a565b92915050565b7f4e487b7100000000000000000000000000000000000000000000000000000000600052603260045260246000fd5b600081519050919050565b600082825260208201905092915050565b60005b83811015620005d3578082015181840152602081019050620005b6565b83811115620005e3576000848401525b50505050565b6000620005f68262000597565b620006028185620005a2565b935062000614818560208601620005b3565b6200061f8162000303565b840191505092915050565b60006040820190508181036000830152620006468185620005e9565b905081810360208301526200065c8184620005e9565b9050939250505056fe60806040523480156200001157600080fd5b506040516200145b3803806200145b8339818101604052810190620000379190620003aa565b620000576200004b6200009160201b60201c565b6200009960201b60201c565b81600290805190602001906200006f9291906200015d565b508060039080519060200190620000889291906200015d565b50505062000493565b600033905090565b60008060009054906101000a900473ffffffffffffffffffffffffffffffffffffffff169050816000806101000a81548173ffffffffffffffffffffffffffffffffffffffff021916908373ffffffffffffffffffffffffffffffffffffffff1602179055508173ffffffffffffffffffffffffffffffffffffffff168173ffffffffffffffffffffffffffffffffffffffff167f8be0079c531659141344cd1fd0a4f28419497f9722a3daafe3b4186f6b6457e060405160405180910390a35050565b8280546200016b906200045e565b90600052602060002090601f0160209004810192826200018f5760008555620001db565b82601f10620001aa57805160ff1916838001178555620001db565b82800160010185558215620001db579182015b82811115620001da578251825591602001919060010190620001bd565b5b509050620001ea9190620001ee565b5090565b5b8082111562000209576000816000905550600101620001ef565b5090565b6000604051905090565b600080fd5b600080fd5b600080fd5b600080fd5b6000601f19601f8301169050919050565b7f4e487b7100000000000000000000000000000000000000000000000000000000600052604160045260246000fd5b62000276826200022b565b810181811067ffffffffffffffff821117156200029857620002976200023c565b5b80604052505050565b6000620002ad6200020d565b9050620002bb82826200026b565b919050565b600067ffffffffffffffff821115620002de57620002dd6200023c565b5b620002e9826200022b565b9050602081019050919050565b60005b8381101562000316578082015181840152602081019050620002f9565b8381111562000326576000848401525b50505050565b6000620003436200033d84620002c0565b620002a1565b90508281526020810184848401111562000362576200036162000226565b5b6200036f848285620002f6565b509392505050565b600082601f8301126200038f576200038e62000221565b5b8151620003a18482602086016200032c565b91505092915050565b60008060408385031215620003c457620003c362000217565b5b600083015167ffffffffffffffff811115620003e557620003e46200021c565b5b620003f38582860162000377565b925050602083015167ffffffffffffffff8111156200041757620004166200021c565b5b620004258582860162000377565b9150509250929050565b7f4e487b7100000000000000000000000000000000000000000000000000000000600052602260045260246000fd5b600060028204905060018216806200047757607f821691505b6020821081036200048d576200048c6200042f565b5b50919050565b610fb880620004a36000396000f3fe608060405234801561001057600080fd5b50600436106100935760003560e01c8063715018a611610066578063715018a6146101325780638da5cb5b1461013c57806395d89b411461015a578063c87b56dd14610178578063f2fde38b146101a857610093565b806306fdde031461009857806310f13a8c146100b657806359d1d43c146100d25780636352211e14610102575b600080fd5b6100a06101c4565b6040516100ad91906109a9565b60405180910390f35b6100d060048036038101906100cb9190610a70565b610256565b005b6100ec60048036038101906100e79190610b05565b6102f0565b6040516100f991906109a9565b60405180910390f35b61011c60048036038101906101179190610b9b565b6103b5565b6040516101299190610c09565b60405180910390f35b61013a610466565b005b61014461047a565b6040516101519190610c09565b60405180910390f35b6101626104a3565b60405161016f91906109a9565b60405180910390f35b610192600480360381019061018d9190610b9b565b610535565b60405161019f91906109a9565b60405180910390f35b6101c260048036038101906101bd9190610c50565b6105e9565b005b6060600280546101d390610cac565b80601f01602080910402602001604051908101604052809291908181526020018280546101ff90610cac565b801561024c5780601f106102215761010080835404028352916020019161024c565b820191906000526020600020905b81548152906001019060200180831161022f57829003601f168201915b5050505050905090565b818160016000888152602001908152602001600020868660405161027b929190610d1c565b9081526020016040518091039020919061029692919061086d565b5083836040516102a7929190610d1c565b6040518091039020857fd8c9334b1a9c2f9da342a0a2b32629c1a229b6445dad78947f674b44444a755086866040516102e1929190610d62565b60405180910390a35050505050565b6060600160008581526020019081526020016000208383604051610315929190610d1c565b9081526020016040518091039020805461032e90610cac565b80601f016020809104026020016040519081016040528092919081815260200182805461035a90610cac565b80156103a75780601f1061037c576101008083540402835291602001916103a7565b820191906000526020600020905b81548152906001019060200180831161038a57829003601f168201915b505050505090509392505050565b6000806004600084815260200190815260200160002060009054906101000a900473ffffffffffffffffffffffffffffffffffffffff169050600073ffffffffffffffffffffffffffffffffffffffff168173ffffffffffffffffffffffffffffffffffffffff160361045d576040517f08c379a000000000000000000000000000000000000000000000000000000000815260040161045490610df8565b60405180910390fd5b80915050919050565b61046e61066c565b61047860006106ea565b565b60008060009054906101000a900473ffffffffffffffffffffffffffffffffffffffff16905090565b6060600380546104b290610cac565b80601f01602080910402602001604051908101604052809291908181526020018280546104de90610cac565b801561052b5780601f106105005761010080835404028352916020019161052b565b820191906000526020600020905b81548152906001019060200180831161050e57829003601f168201915b5050505050905090565b6060610540826107ae565b600060056000848152602001908152602001600020805461056090610cac565b80601f016020809104026020016040519081016040528092919081815260200182805461058c90610cac565b80156105d95780601f106105ae576101008083540402835291602001916105d9565b820191906000526020600020905b8154815290600101906020018083116105bc57829003601f168201915b5050505050905080915050919050565b6105f161066c565b600073ffffffffffffffffffffffffffffffffffffffff168173ffffffffffffffffffffffffffffffffffffffff1603610660576040517f08c379a000000000000000000000000000000000000000000000000000000000815260040161065790610e8a565b60405180910390fd5b610669816106ea565b50565b6106746107f9565b73ffffffffffffffffffffffffffffffffffffffff1661069261047a565b73ffffffffffffffffffffffffffffffffffffffff16146106e8576040517f08c379a00000000000000000000000000000000000000000000000000000000081526004016106df90610ef6565b60405180910390fd5b565b60008060009054906101000a900473ffffffffffffffffffffffffffffffffffffffff169050816000806101000a81548173ffffffffffffffffffffffffffffffffffffffff021916908373ffffffffffffffffffffffffffffffffffffffff1602179055508173ffffffffffffffffffffffffffffffffffffffff168173ffffffffffffffffffffffffffffffffffffffff167f8be0079c531659141344cd1fd0a4f28419497f9722a3daafe3b4186f6b6457e060405160405180910390a35050565b6107b781610801565b6107f6576040517f08c379a00000000000000000000000000000000000000000000000000000000081526004016107ed90610f62565b60405180910390fd5b50565b600033905090565b60008073ffffffffffffffffffffffffffffffffffffffff166004600084815260200190815260200160002060009054906101000a900473ffffffffffffffffffffffffffffffffffffffff1673ffffffffffffffffffffffffffffffffffffffff1614159050919050565b82805461087990610cac565b90600052602060002090601f01602090048101928261089b57600085556108e2565b82601f106108b457803560ff19168380011785556108e2565b828001600101855582156108e2579182015b828111156108e15782358255916020019190600101906108c6565b5b5090506108ef91906108f3565b5090565b5b8082111561090c5760008160009055506001016108f4565b5090565b600081519050919050565b600082825260208201905092915050565b60005b8381101561094a57808201518184015260208101905061092f565b83811115610959576000848401525b50505050565b6000601f19601f8301169050919050565b600061097b82610910565b610985818561091b565b935061099581856020860161092c565b61099e8161095f565b840191505092915050565b600060208201905081810360008301526109c38184610970565b905092915050565b600080fd5b600080fd5b6000819050919050565b6109e8816109d5565b81146109f357600080fd5b50565b600081359050610a05816109df565b92915050565b600080fd5b600080fd5b600080fd5b60008083601f840112610a3057610a2f610a0b565b5b8235905067ffffffffffffffff811115610a4d57610a4c610a10565b5b602083019150836001820283011115610a6957610a68610a15565b5b9250929050565b600080600080600060608688031215610a8c57610a8b6109cb565b5b6000610a9a888289016109f6565b955050602086013567ffffffffffffffff811115610abb57610aba6109d0565b5b610ac788828901610a1a565b9450945050604086013567ffffffffffffffff811115610aea57610ae96109d0565b5b610af688828901610a1a565b92509250509295509295909350565b600080600060408486031215610b1e57610b1d6109cb565b5b6000610b2c868287016109f6565b935050602084013567ffffffffffffffff811115610b4d57610b4c6109d0565b5b610b5986828701610a1a565b92509250509250925092565b6000819050919050565b610b7881610b65565b8114610b8357600080fd5b50565b600081359050610b9581610b6f565b92915050565b600060208284031215610bb157610bb06109cb565b5b6000610bbf84828501610b86565b91505092915050565b600073ffffffffffffffffffffffffffffffffffffffff82169050919050565b6000610bf382610bc8565b9050919050565b610c0381610be8565b82525050565b6000602082019050610c1e6000830184610bfa565b92915050565b610c2d81610be8565b8114610c3857600080fd5b50565b600081359050610c4a81610c24565b92915050565b600060208284031215610c6657610c656109cb565b5b6000610c7484828501610c3b565b91505092915050565b7f4e487b7100000000000000000000000000000000000000000000000000000000600052602260045260246000fd5b60006002820490506001821680610cc457607f821691505b602082108103610cd757610cd6610c7d565b5b50919050565b600081905092915050565b82818337600083830152505050565b6000610d038385610cdd565b9350610d10838584610ce8565b82840190509392505050565b6000610d29828486610cf7565b91508190509392505050565b6000610d41838561091b565b9350610d4e838584610ce8565b610d578361095f565b840190509392505050565b60006020820190508181036000830152610d7d818486610d35565b90509392505050565b7f536f756c626f756e644e46543a206f776e657220717565727920666f72206e6f60008201527f6e6578697374656e7420746f6b656e0000000000000000000000000000000000602082015250565b6000610de2602f8361091b565b9150610ded82610d86565b604082019050919050565b60006020820190508181036000830152610e1181610dd5565b9050919050565b7f4f776e61626c653a206e6577206f776e657220697320746865207a65726f206160008201527f6464726573730000000000000000000000000000000000000000000000000000602082015250565b6000610e7460268361091b565b9150610e7f82610e18565b604082019050919050565b60006020820190508181036000830152610ea381610e67565b9050919050565b7f4f776e61626c653a2063616c6c6572206973206e6f7420746865206f776e6572600082015250565b6000610ee060208361091b565b9150610eeb82610eaa565b602082019050919050565b60006020820190508181036000830152610f0f81610ed3565b9050919050565b7f4552433732313a20696e76616c696420746f6b656e2049440000000000000000600082015250565b6000610f4c60188361091b565b9150610f5782610f16565b602082019050919050565b60006020820190508181036000830152610f7b81610f3f565b905091905056fea264697066735822122060120cf22a4928da3bc4bc4209431fef0fb21dbf39b8d2d398423fadd44d877c64736f6c634300080e0033a264697066735822122067d8a420cc32bd3098a882ab75eb39f5257c401e523b1e77f3cf464769c06d8464736f6c634300080e0033",
  "linkReferences": {},
  "deployedLinkReferences": {}
}