{
  "_format": "hh-sol-artifact-1",
  "contractName": "EmploymentLoan",
  "sourceName": "contracts/EmploymentLoan.sol",
  "abi": [
    {
      "inputs": [
        {
          "internalType": "int256",
          "name": "_borrowAmount",
          "type": "int256"
        },
        {
          "internalType": "int8",
          "name": "_interestRate",
          "type": "int8"
        },
        {
          "internalType": "int256",
          "name": "_paybackMonths",
          "type": "int256"
        },
        {
          "internalType": "address",
          "name": "_employer",
          "type": "address"
        },
        {
          "internalType": "address",
          "name": "_borrower",
          "type": "address"
        },
        {
          "internalType": "contract ISuperToken",
          "name": "_borrowToken",
          "type": "address"
        },
        {
          "internalType": "contract ISuperfluid",
          "name": "_host",
          "type": "address"
        }
      ],
      "stateMutability": "nonpayable",
      "type": "constructor"
    },
    {
      "inputs": [],
      "name": "CFA_ID",
      "outputs": [
        {
          "internalType": "bytes32",
          "name": "",
          "type": "bytes32"
        }
      ],
      "stateMutability": "view",
      "type": "function"
    },
    {
      "inputs": [
        {
          "internalType": "contract ISuperToken",
          "name": "_superToken",
          "type": "address"
        },
        {
          "internalType": "address",
          "name": "_agreementClass",
          "type": "address"
        },
        {
          "internalType": "bytes32",
          "name": "",
          "type": "bytes32"
        },
        {
          "internalType": "bytes",
          "name": "",
          "type": "bytes"
        },
        {
          "internalType": "bytes",
          "name": "",
          "type": "bytes"
        },
        {
          "internalType": "bytes",
          "name": "ctx",
          "type": "bytes"
        }
      ],
      "name": "afterAgreementCreated",
      "outputs": [
        {
          "internalType": "bytes",
          "name": "newCtx",
          "type": "bytes"
        }
      ],
      "stateMutability": "nonpayable",
      "type": "function"
    },
    {
      "inputs": [
        {
          "internalType": "contract ISuperToken",
          "name": "_superToken",
          "type": "address"
        },
        {
          "internalType": "address",
          "name": "_agreementClass",
          "type": "address"
        },
        {
          "internalType": "bytes32",
          "name": "",
          "type": "bytes32"
        },
        {
          "internalType": "bytes",
          "name": "",
          "type": "bytes"
        },
        {
          "internalType": "bytes",
          "name": "",
          "type": "bytes"
        },
        {
          "internalType": "bytes",
          "name": "ctx",
          "type": "bytes"
        }
      ],
      "name": "afterAgreementTerminated",
      "outputs": [
        {
          "internalType": "bytes",
          "name": "newCtx",
          "type": "bytes"
        }
      ],
      "stateMutability": "nonpayable",
      "type": "function"
    },
    {
      "inputs": [
        {
          "internalType": "contract ISuperToken",
          "name": "_superToken",
          "type": "address"
        },
        {
          "internalType": "address",
          "name": "_agreementClass",
          "type": "address"
        },
        {
          "internalType": "bytes32",
          "name": "",
          "type": "bytes32"
        },
        {
          "internalType": "bytes",
          "name": "",
          "type": "bytes"
        },
        {
          "internalType": "bytes",
          "name": "",
          "type": "bytes"
        },
        {
          "internalType": "bytes",
          "name": "ctx",
          "type": "bytes"
        }
      ],
      "name": "afterAgreementUpdated",
      "outputs": [
        {
          "internalType": "bytes",
          "name": "newCtx",
          "type": "bytes"
        }
      ],
      "stateMutability": "nonpayable",
      "type": "function"
    },
    {
      "inputs": [
        {
          "internalType": "contract ISuperToken",
          "name": "",
          "type": "address"
        },
        {
          "internalType": "address",
          "name": "",
          "type": "address"
        },
        {
          "internalType": "bytes32",
          "name": "",
          "type": "bytes32"
        },
        {
          "internalType": "bytes",
          "name": "",
          "type": "bytes"
        },
        {
          "internalType": "bytes",
          "name": "",
          "type": "bytes"
        }
      ],
      "name": "beforeAgreementCreated",
      "outputs": [
        {
          "internalType": "bytes",
          "name": "",
          "type": "bytes"
        }
      ],
      "stateMutability": "view",
      "type": "function"
    },
    {
      "inputs": [
        {
          "internalType": "contract ISuperToken",
          "name": "",
          "type": "address"
        },
        {
          "internalType": "address",
          "name": "",
          "type": "address"
        },
        {
          "internalType": "bytes32",
          "name": "",
          "type": "bytes32"
        },
        {
          "internalType": "bytes",
          "name": "",
          "type": "bytes"
        },
        {
          "internalType": "bytes",
          "name": "",
          "type": "bytes"
        }
      ],
      "name": "beforeAgreementTerminated",
      "outputs": [
        {
          "internalType": "bytes",
          "name": "",
          "type": "bytes"
        }
      ],
      "stateMutability": "view",
      "type": "function"
    },
    {
      "inputs": [
        {
          "internalType": "contract ISuperToken",
          "name": "",
          "type": "address"
        },
        {
          "internalType": "address",
          "name": "",
          "type": "address"
        },
        {
          "internalType": "bytes32",
          "name": "",
          "type": "bytes32"
        },
        {
          "internalType": "bytes",
          "name": "",
          "type": "bytes"
        },
        {
          "internalType": "bytes",
          "name": "",
          "type": "bytes"
        }
      ],
      "name": "beforeAgreementUpdated",
      "outputs": [
        {
          "internalType": "bytes",
          "name": "",
          "type": "bytes"
        }
      ],
      "stateMutability": "view",
      "type": "function"
    },
    {
      "inputs": [],
      "name": "borrowAmount",
      "outputs": [
        {
          "internalType": "int256",
          "name": "",
          "type": "int256"
        }
      ],
      "stateMutability": "view",
      "type": "function"
    },
    {
      "inputs": [],
      "name": "borrowToken",
      "outputs": [
        {
          "internalType": "contract ISuperToken",
          "name": "",
          "type": "address"
        }
      ],
      "stateMutability": "view",
      "type": "function"
    },
    {
      "inputs": [],
      "name": "borrower",
      "outputs": [
        {
          "internalType": "address",
          "name": "",
          "type": "address"
        }
      ],
      "stateMutability": "view",
      "type": "function"
    },
    {
      "inputs": [],
      "name": "cfaV1",
      "outputs": [
        {
          "internalType": "contract ISuperfluid",
          "name": "host",
          "type": "address"
        },
        {
          "internalType": "contract IConstantFlowAgreementV1",
          "name": "cfa",
          "type": "address"
        }
      ],
      "stateMutability": "view",
      "type": "function"
    },
    {
      "inputs": [],
      "name": "closeCompletedLoan",
      "outputs": [],
      "stateMutability": "nonpayable",
      "type": "function"
    },
    {
      "inputs": [
        {
          "internalType": "uint256",
          "name": "amountForPayoff",
          "type": "uint256"
        }
      ],
      "name": "closeOpenLoan",
      "outputs": [],
      "stateMutability": "nonpayable",
      "type": "function"
    },
    {
      "inputs": [],
      "name": "employer",
      "outputs": [
        {
          "internalType": "address",
          "name": "",
          "type": "address"
        }
      ],
      "stateMutability": "view",
      "type": "function"
    },
    {
      "inputs": [],
      "name": "getPaymentFlowRate",
      "outputs": [
        {
          "internalType": "int96",
          "name": "paymentFlowRate",
          "type": "int96"
        }
      ],
      "stateMutability": "view",
      "type": "function"
    },
    {
      "inputs": [],
      "name": "getTotalAmountRemaining",
      "outputs": [
        {
          "internalType": "uint256",
          "name": "",
          "type": "uint256"
        }
      ],
      "stateMutability": "view",
      "type": "function"
    },
    {
      "inputs": [],
      "name": "host",
      "outputs": [
        {
          "internalType": "contract ISuperfluid",
          "name": "",
          "type": "address"
        }
      ],
      "stateMutability": "view",
      "type": "function"
    },
    {
      "inputs": [],
      "name": "interestRate",
      "outputs": [
        {
          "internalType": "int8",
          "name": "",
          "type": "int8"
        }
      ],
      "stateMutability": "view",
      "type": "function"
    },
    {
      "inputs": [],
      "name": "lend",
      "outputs": [],
      "stateMutability": "nonpayable",
      "type": "function"
    },
    {
      "inputs": [],
      "name": "lender",
      "outputs": [
        {
          "internalType": "address",
          "name": "",
          "type": "address"
        }
      ],
      "stateMutability": "view",
      "type": "function"
    },
    {
      "inputs": [],
      "name": "loanOpen",
      "outputs": [
        {
          "internalType": "bool",
          "name": "",
          "type": "bool"
        }
      ],
      "stateMutability": "view",
      "type": "function"
    },
    {
      "inputs": [],
      "name": "loanStartTime",
      "outputs": [
        {
          "internalType": "uint256",
          "name": "",
          "type": "uint256"
        }
      ],
      "stateMutability": "view",
      "type": "function"
    },
    {
      "inputs": [],
      "name": "paybackMonths",
      "outputs": [
        {
          "internalType": "int256",
          "name": "",
          "type": "int256"
        }
      ],
      "stateMutability": "view",
      "type": "function"
    }
  ],
  "bytecode": "0x6101606040523480156200001257600080fd5b5060405162005379380380620053798339818101604052810190620000389190620004c0565b86608081815250508560000b60a08160000b815250508460c081815250508373ffffffffffffffffffffffffffffffffffffffff1660e08173ffffffffffffffffffffffffffffffffffffffff16815250508273ffffffffffffffffffffffffffffffffffffffff166101008173ffffffffffffffffffffffffffffffffffffffff16815250508173ffffffffffffffffffffffffffffffffffffffff166101408173ffffffffffffffffffffffffffffffffffffffff16815250508073ffffffffffffffffffffffffffffffffffffffff166101208173ffffffffffffffffffffffffffffffffffffffff16815250506000600260146101000a81548160ff02191690831515021790555060008173ffffffffffffffffffffffffffffffffffffffff1663b6d200de7fa9214cc96615e0085d3bb077758db69497dc2dce3b2b1e97bc93c3d18d83efd36040518263ffffffff1660e01b8152600401620001a191906200058e565b602060405180830381865afa158015620001bf573d6000803e3d6000fd5b505050506040513d601f19601f82011682018060405250810190620001e59190620005f0565b905060405180604001604052808373ffffffffffffffffffffffffffffffffffffffff1681526020018273ffffffffffffffffffffffffffffffffffffffff168152506000808201518160000160006101000a81548173ffffffffffffffffffffffffffffffffffffffff021916908373ffffffffffffffffffffffffffffffffffffffff16021790555060208201518160010160006101000a81548173ffffffffffffffffffffffffffffffffffffffff021916908373ffffffffffffffffffffffffffffffffffffffff1602179055509050506000641000000000640400000000640100000000600117171790508273ffffffffffffffffffffffffffffffffffffffff1663ad3915c8826040518263ffffffff1660e01b81526004016200031091906200063d565b600060405180830381600087803b1580156200032b57600080fd5b505af115801562000340573d6000803e3d6000fd5b505050505050505050505050506200065a565b600080fd5b6000819050919050565b6200036d8162000358565b81146200037957600080fd5b50565b6000815190506200038d8162000362565b92915050565b60008160000b9050919050565b620003ab8162000393565b8114620003b757600080fd5b50565b600081519050620003cb81620003a0565b92915050565b600073ffffffffffffffffffffffffffffffffffffffff82169050919050565b6000620003fe82620003d1565b9050919050565b6200041081620003f1565b81146200041c57600080fd5b50565b600081519050620004308162000405565b92915050565b60006200044382620003f1565b9050919050565b620004558162000436565b81146200046157600080fd5b50565b60008151905062000475816200044a565b92915050565b60006200048882620003f1565b9050919050565b6200049a816200047b565b8114620004a657600080fd5b50565b600081519050620004ba816200048f565b92915050565b600080600080600080600060e0888a031215620004e257620004e162000353565b5b6000620004f28a828b016200037c565b9750506020620005058a828b01620003ba565b9650506040620005188a828b016200037c565b95505060606200052b8a828b016200041f565b94505060806200053e8a828b016200041f565b93505060a0620005518a828b0162000464565b92505060c0620005648a828b01620004a9565b91505092959891949750929550565b6000819050919050565b620005888162000573565b82525050565b6000602082019050620005a560008301846200057d565b92915050565b6000620005b882620003f1565b9050919050565b620005ca81620005ab565b8114620005d657600080fd5b50565b600081519050620005ea81620005bf565b92915050565b60006020828403121562000609576200060862000353565b5b60006200061984828501620005d9565b91505092915050565b6000819050919050565b620006378162000622565b82525050565b60006020820190506200065460008301846200062c565b92915050565b60805160a05160c05160e051610100516101205161014051614b1962000860600039600081816105fe0152818161090c015281816109cd01528181610af001528181610bb401528181610c7f01528181610cff01528181610ef101528181610fdc015281816110ff0152818161115601528181611249015281816113330152818161138a015281816115f8015281816116c80152818161173d0152818161180801528181611868015281816119ef01528181611ab301528181611b9e01528181611e9b01528181611ef801528181611fc0015281816120bb0152818161212701528181612191015281816121f201528181612288015281816122e5015281816123460152818161254a015281816125b3015261261401526000818161157d01526123d501526000818161086301528181610a0a01528181610bd601528181610c5e01528181610ffe01528181611135015281816113690152818161175f015281816117e701528181611bc001528181611ed701528181611fe20152818161209a01528181612106015281816121d101528181612267015281816123250152818161252901526125f301526000818161092d01528181610e1d015261247c01526000818161074201528181610db70152610e41015260008181610765015261083f015260008181610789015281816107be01528181610a2b0152610e650152614b196000f3fe608060405234801561001057600080fd5b506004361061014d5760003560e01c8063884d1f40116100c3578063bcead63e1161007c578063bcead63e14610396578063d116eb5b146103b4578063d3112b2e146103d0578063d86ed3e5146103ef578063f437bc591461041f578063fea7b5931461043d5761014d565b8063884d1f40146102e457806397dffc61146103145780639ed53f7a1461031e578063ae200e791461033c578063ae5a02341461035a578063b7dd32aa146103785761014d565b806353c11f991161011557806353c11f991461020c5780635e084a411461023c5780635f9e7d771461025a5780637c3a00fd1461028a5780637df1f1b9146102a8578063850c4ca0146102c65761014d565b8063215eed0214610152578063230dbd291461017057806330d9c915146101a05780633cf4d1f8146101d0578063456dc17a146101ee575b600080fd5b61015a610447565b6040516101679190613221565b60405180910390f35b61018a6004803603810190610185919061337d565b61046b565b6040516101979190613505565b60405180910390f35b6101ba60048036038101906101b59190613527565b6105ac565b6040516101c79190613505565b60405180910390f35b6101d86105e9565b6040516101e591906135fe565b60405180910390f35b6101f66105fc565b6040516102039190613678565b60405180910390f35b6102266004803603810190610221919061337d565b610620565b6040516102339190613505565b60405180910390f35b61024461073a565b60405161025191906136af565b60405180910390f35b610274600480360381019061026f9190613527565b610800565b6040516102819190613505565b60405180910390f35b61029261083d565b60405161029f91906136e6565b60405180910390f35b6102b0610861565b6040516102bd9190613710565b60405180910390f35b6102ce610885565b6040516102db9190613744565b60405180910390f35b6102fe60048036038101906102f99190613527565b61088b565b60405161030b9190613505565b60405180910390f35b61031c6108c8565b005b610326610da0565b6040516103339190613744565b60405180910390f35b610344610e1b565b6040516103519190613710565b60405180910390f35b610362610e3f565b60405161036f9190613778565b60405180910390f35b610380610e63565b60405161038d9190613778565b60405180910390f35b61039e610e87565b6040516103ab9190613710565b60405180910390f35b6103ce60048036038101906103c991906137bf565b610ead565b005b6103d86113e8565b6040516103e692919061382e565b60405180910390f35b6104096004803603810190610404919061337d565b61143a565b6040516104169190613505565b60405180910390f35b61042761157b565b6040516104349190613857565b60405180910390f35b61044561159f565b005b7fa9214cc96615e0085d3bb077758db69497dc2dce3b2b1e97bc93c3d18d83efd381565b6060898961047882611864565b6104b7576040517f08c379a00000000000000000000000000000000000000000000000000000000081526004016104ae906138cf565b60405180910390fd5b6104c0816118bc565b6104ff576040517f08c379a00000000000000000000000000000000000000000000000000000000081526004016104f690613961565b60405180910390fd5b6000800160009054906101000a900473ffffffffffffffffffffffffffffffffffffffff1673ffffffffffffffffffffffffffffffffffffffff163373ffffffffffffffffffffffffffffffffffffffff1614610591576040517f08c379a0000000000000000000000000000000000000000000000000000000008152600401610588906139cd565b60405180910390fd5b61059b8585611956565b925050509998505050505050505050565b60606040517f08c379a00000000000000000000000000000000000000000000000000000000081526004016105e090613a5f565b60405180910390fd5b600260149054906101000a900460ff1681565b7f000000000000000000000000000000000000000000000000000000000000000081565b60606000800160009054906101000a900473ffffffffffffffffffffffffffffffffffffffff1673ffffffffffffffffffffffffffffffffffffffff163373ffffffffffffffffffffffffffffffffffffffff16146106b4576040517f08c379a00000000000000000000000000000000000000000000000000000000081526004016106ab906139cd565b60405180910390fd5b6106bd896118bc565b15806106cf57506106cd8a611864565b155b156107205782828080601f016020809104026020016040519081016040528093929190818152602001838380828437600081840152601f19601f82011690508083019250505050505050905061072d565b61072a8383611956565b90505b9998505050505050505050565b6000622819a07f000000000000000000000000000000000000000000000000000000000000000060647f000000000000000000000000000000000000000000000000000000000000000060000b7f00000000000000000000000000000000000000000000000000000000000000006107b29190613aae565b6107bc9190613bf4565b7f00000000000000000000000000000000000000000000000000000000000000006107e79190613c5e565b6107f19190613bf4565b6107fb9190613bf4565b905090565b60606040517f08c379a000000000000000000000000000000000000000000000000000000000815260040161083490613d64565b60405180910390fd5b7f000000000000000000000000000000000000000000000000000000000000000081565b7f000000000000000000000000000000000000000000000000000000000000000081565b60035481565b60606040517f08c379a00000000000000000000000000000000000000000000000000000000081526004016108bf90613df6565b60405180910390fd5b60008060010160009054906101000a900473ffffffffffffffffffffffffffffffffffffffff1673ffffffffffffffffffffffffffffffffffffffff1663e6a1e8887f00000000000000000000000000000000000000000000000000000000000000007f0000000000000000000000000000000000000000000000000000000000000000306040518463ffffffff1660e01b815260040161096b93929190613e16565b608060405180830381865afa158015610988573d6000803e3d6000fd5b505050506040513d601f19601f820116820180604052508101906109ac9190613e8e565b50509150506109b961073a565b600b0b81600b0b12156109cb57600080fd5b7f000000000000000000000000000000000000000000000000000000000000000073ffffffffffffffffffffffffffffffffffffffff166323b872dd337f00000000000000000000000000000000000000000000000000000000000000007f00000000000000000000000000000000000000000000000000000000000000006040518463ffffffff1660e01b8152600401610a6893929190613ef5565b6020604051808303816000875af1158015610a87573d6000803e3d6000fd5b505050506040513d601f19601f82011682018060405250810190610aab9190613f58565b5060008060010160009054906101000a900473ffffffffffffffffffffffffffffffffffffffff1673ffffffffffffffffffffffffffffffffffffffff1663e8e7e2d17f0000000000000000000000000000000000000000000000000000000000000000306040518363ffffffff1660e01b8152600401610b2d929190613f85565b602060405180830381865afa158015610b4a573d6000803e3d6000fd5b505050506040513d601f19601f82011682018060405250810190610b6e9190613fae565b905060008060010160009054906101000a900473ffffffffffffffffffffffffffffffffffffffff1673ffffffffffffffffffffffffffffffffffffffff1663e6a1e8887f0000000000000000000000000000000000000000000000000000000000000000307f00000000000000000000000000000000000000000000000000000000000000006040518463ffffffff1660e01b8152600401610c1393929190613e16565b608060405180830381865afa158015610c30573d6000803e3d6000fd5b505050506040513d601f19601f82011682018060405250810190610c549190613e8e565b5050915050610cf97f00000000000000000000000000000000000000000000000000000000000000007f0000000000000000000000000000000000000000000000000000000000000000610ca661073a565b7fffffffffffffffffffffffffffffffffffffffffffffffffffffffffffffffff8587610cd39190613fdb565b610cdd919061405b565b610ce79190613fdb565b6000611cfc909392919063ffffffff16565b610d38337f0000000000000000000000000000000000000000000000000000000000000000610d2661073a565b6000611d5c909392919063ffffffff16565b6001600260146101000a81548160ff02191690831515021790555033600260006101000a81548173ffffffffffffffffffffffffffffffffffffffff021916908373ffffffffffffffffffffffffffffffffffffffff16021790555042600381905550505050565b60008060035442610db1919061414a565b622819a07f0000000000000000000000000000000000000000000000000000000000000000610de09190613aae565b610dea919061417e565b905060008113610dfe576000915050610e18565b610e0661073a565b600b0b81610e149190614212565b9150505b90565b7f000000000000000000000000000000000000000000000000000000000000000081565b7f000000000000000000000000000000000000000000000000000000000000000081565b7f000000000000000000000000000000000000000000000000000000000000000081565b600260009054906101000a900473ffffffffffffffffffffffffffffffffffffffff1681565b60008060010160009054906101000a900473ffffffffffffffffffffffffffffffffffffffff1673ffffffffffffffffffffffffffffffffffffffff1663e6a1e8887f000000000000000000000000000000000000000000000000000000000000000030600260009054906101000a900473ffffffffffffffffffffffffffffffffffffffff166040518463ffffffff1660e01b8152600401610f5293929190613e16565b608060405180830381865afa158015610f6f573d6000803e3d6000fd5b505050506040513d601f19601f82011682018060405250810190610f939190613e8e565b505091505060008060010160009054906101000a900473ffffffffffffffffffffffffffffffffffffffff1673ffffffffffffffffffffffffffffffffffffffff1663e6a1e8887f0000000000000000000000000000000000000000000000000000000000000000307f00000000000000000000000000000000000000000000000000000000000000006040518463ffffffff1660e01b815260040161103b93929190613e16565b608060405180830381865afa158015611058573d6000803e3d6000fd5b505050506040513d601f19601f8201168201806040525081019061107c9190613e8e565b5050915050600260009054906101000a900473ffffffffffffffffffffffffffffffffffffffff1673ffffffffffffffffffffffffffffffffffffffff163373ffffffffffffffffffffffffffffffffffffffff16036111b35761113030600260009054906101000a900473ffffffffffffffffffffffffffffffffffffffff167f00000000000000000000000000000000000000000000000000000000000000006000611dbc909392919063ffffffff16565b6111937f00000000000000000000000000000000000000000000000000000000000000007f00000000000000000000000000000000000000000000000000000000000000008484611181919061426c565b6000611cfc909392919063ffffffff16565b6000600260146101000a81548160ff0219169083151502179055506113e3565b6111bb610da0565b8310156111fd576040517f08c379a00000000000000000000000000000000000000000000000000000000081526004016111f490614338565b60405180910390fd5b6000611207610da0565b11611247576040517f08c379a000000000000000000000000000000000000000000000000000000000815260040161123e906143ca565b60405180910390fd5b7f000000000000000000000000000000000000000000000000000000000000000073ffffffffffffffffffffffffffffffffffffffff166323b872dd33600260009054906101000a900473ffffffffffffffffffffffffffffffffffffffff16866040518463ffffffff1660e01b81526004016112c693929190613ef5565b6020604051808303816000875af11580156112e5573d6000803e3d6000fd5b505050506040513d601f19601f820116820180604052508101906113099190613f58565b5061136430600260009054906101000a900473ffffffffffffffffffffffffffffffffffffffff167f00000000000000000000000000000000000000000000000000000000000000006000611dbc909392919063ffffffff16565b6113c77f00000000000000000000000000000000000000000000000000000000000000007f000000000000000000000000000000000000000000000000000000000000000084846113b5919061426c565b6000611cfc909392919063ffffffff16565b6000600260146101000a81548160ff0219169083151502179055505b505050565b60008060000160009054906101000a900473ffffffffffffffffffffffffffffffffffffffff16908060010160009054906101000a900473ffffffffffffffffffffffffffffffffffffffff16905082565b6060898961144782611864565b611486576040517f08c379a000000000000000000000000000000000000000000000000000000000815260040161147d906138cf565b60405180910390fd5b61148f816118bc565b6114ce576040517f08c379a00000000000000000000000000000000000000000000000000000000081526004016114c590613961565b60405180910390fd5b6000800160009054906101000a900473ffffffffffffffffffffffffffffffffffffffff1673ffffffffffffffffffffffffffffffffffffffff163373ffffffffffffffffffffffffffffffffffffffff1614611560576040517f08c379a0000000000000000000000000000000000000000000000000000000008152600401611557906139cd565b60405180910390fd5b61156a8585611956565b925050509998505050505050505050565b7f000000000000000000000000000000000000000000000000000000000000000081565b60006115a9610da0565b11156115b457600080fd5b60008060010160009054906101000a900473ffffffffffffffffffffffffffffffffffffffff1673ffffffffffffffffffffffffffffffffffffffff1663e6a1e8887f000000000000000000000000000000000000000000000000000000000000000030600260009054906101000a900473ffffffffffffffffffffffffffffffffffffffff166040518463ffffffff1660e01b815260040161165993929190613e16565b608060405180830381865afa158015611676573d6000803e3d6000fd5b505050506040513d601f19601f8201168201806040525081019061169a9190613e8e565b50509150506116f930600260009054906101000a900473ffffffffffffffffffffffffffffffffffffffff167f00000000000000000000000000000000000000000000000000000000000000006000611dbc909392919063ffffffff16565b60008060010160009054906101000a900473ffffffffffffffffffffffffffffffffffffffff1673ffffffffffffffffffffffffffffffffffffffff1663e6a1e8887f0000000000000000000000000000000000000000000000000000000000000000307f00000000000000000000000000000000000000000000000000000000000000006040518463ffffffff1660e01b815260040161179c93929190613e16565b608060405180830381865afa1580156117b9573d6000803e3d6000fd5b505050506040513d601f19601f820116820180604052508101906117dd9190613e8e565b50509150506118457f00000000000000000000000000000000000000000000000000000000000000007f00000000000000000000000000000000000000000000000000000000000000008484611833919061426c565b6000611cfc909392919063ffffffff16565b6000600260146101000a81548160ff0219169083151502179055505050565b60007f000000000000000000000000000000000000000000000000000000000000000073ffffffffffffffffffffffffffffffffffffffff168273ffffffffffffffffffffffffffffffffffffffff16149050919050565b60007fa9214cc96615e0085d3bb077758db69497dc2dce3b2b1e97bc93c3d18d83efd38273ffffffffffffffffffffffffffffffffffffffff16637730599e6040518163ffffffff1660e01b8152600401602060405180830381865afa15801561192a573d6000803e3d6000fd5b505050506040513d601f19601f8201168201806040525081019061194e91906143ff565b149050919050565b606082828080601f016020809104026020016040519081016040528093929190818152602001838380828437600081840152601f19601f82011690508083019250505050505050905060006119a961073a565b905060008060010160009054906101000a900473ffffffffffffffffffffffffffffffffffffffff1673ffffffffffffffffffffffffffffffffffffffff1663e8e7e2d17f0000000000000000000000000000000000000000000000000000000000000000306040518363ffffffff1660e01b8152600401611a2c929190613f85565b602060405180830381865afa158015611a49573d6000803e3d6000fd5b505050506040513d601f19601f82011682018060405250810190611a6d9190613fae565b905060008060010160009054906101000a900473ffffffffffffffffffffffffffffffffffffffff1673ffffffffffffffffffffffffffffffffffffffff1663e6a1e8887f000000000000000000000000000000000000000000000000000000000000000030600260009054906101000a900473ffffffffffffffffffffffffffffffffffffffff166040518463ffffffff1660e01b8152600401611b1493929190613e16565b608060405180830381865afa158015611b31573d6000803e3d6000fd5b505050506040513d601f19601f82011682018060405250810190611b559190613e8e565b505091505060008060010160009054906101000a900473ffffffffffffffffffffffffffffffffffffffff1673ffffffffffffffffffffffffffffffffffffffff1663e6a1e8887f0000000000000000000000000000000000000000000000000000000000000000307f00000000000000000000000000000000000000000000000000000000000000006040518463ffffffff1660e01b8152600401611bfd93929190613e16565b608060405180830381865afa158015611c1a573d6000803e3d6000fd5b505050506040513d601f19601f82011682018060405250810190611c3e9190613e8e565b505091505060008183611c51919061426c565b905060008185611c61919061426c565b9050600081600b0b1215611c9e577fffffffffffffffffffffffffffffffffffffffffffffffffffffffffffffffff81611c9b919061405b565b90505b6000600b0b81600b0b03611cbe57611cb7898986611e1c565b9650611cf0565b6000600b0b82600b0b14611ce057611cd98989888785611f33565b9650611cef565b611cec89898884612388565b96505b5b50505050505092915050565b611d5684848484600067ffffffffffffffff811115611d1e57611d1d61442c565b5b6040519080825280601f01601f191660200182016040528015611d505781602001600182028036833780820191505090505b50612653565b50505050565b611db684848484600067ffffffffffffffff811115611d7e57611d7d61442c565b5b6040519080825280601f01601f191660200182016040528015611db05781602001600182028036833780820191505090505b5061280d565b50505050565b611e1684848484600067ffffffffffffffff811115611dde57611ddd61442c565b5b6040519080825280601f01601f191660200182016040528015611e105781602001600182028036833780820191505090505b506129c7565b50505050565b606083838080601f016020809104026020016040519081016040528093929190818152602001838380828437600081840152601f19601f820116905080830192505050505050509050600082600b0b1315611ed057611ecd8130600260009054906101000a900473ffffffffffffffffffffffffffffffffffffffff167f00000000000000000000000000000000000000000000000000000000000000006000612b8190949392919063ffffffff16565b90505b611f2a81307f00000000000000000000000000000000000000000000000000000000000000007f00000000000000000000000000000000000000000000000000000000000000006000612b8190949392919063ffffffff16565b90509392505050565b606085858080601f016020809104026020016040519081016040528093929190818152602001838380828437600081840152601f19601f82011690508083019250505050505050905060008060010160009054906101000a900473ffffffffffffffffffffffffffffffffffffffff1673ffffffffffffffffffffffffffffffffffffffff1663e6a1e8887f0000000000000000000000000000000000000000000000000000000000000000307f00000000000000000000000000000000000000000000000000000000000000006040518463ffffffff1660e01b815260040161201f93929190613e16565b608060405180830381865afa15801561203c573d6000803e3d6000fd5b505050506040513d601f19601f820116820180604052508101906120609190613e8e565b5050915050600085846120739190613fdb565b600b0b131561222d57600084600b0b13156121cb57600081600b0b1315612100576120f9827f00000000000000000000000000000000000000000000000000000000000000007f000000000000000000000000000000000000000000000000000000000000000088876120e69190613fdb565b6000612be990949392919063ffffffff16565b9150612168565b612165827f00000000000000000000000000000000000000000000000000000000000000007f000000000000000000000000000000000000000000000000000000000000000088876121529190613fdb565b6000612c5190949392919063ffffffff16565b91505b6121c482600260009054906101000a900473ffffffffffffffffffffffffffffffffffffffff167f0000000000000000000000000000000000000000000000000000000000000000886000612be990949392919063ffffffff16565b9150612228565b612225827f00000000000000000000000000000000000000000000000000000000000000007f0000000000000000000000000000000000000000000000000000000000000000866000612be990949392919063ffffffff16565b91505b61237e565b6000858461223b9190613fdb565b600b0b1315801561224f5750600083600b0b135b1561237d57600084600b0b131561231f576122ba82307f00000000000000000000000000000000000000000000000000000000000000007f00000000000000000000000000000000000000000000000000000000000000006000612b8190949392919063ffffffff16565b915061231882600260009054906101000a900473ffffffffffffffffffffffffffffffffffffffff167f0000000000000000000000000000000000000000000000000000000000000000866000612be990949392919063ffffffff16565b915061237c565b612379827f00000000000000000000000000000000000000000000000000000000000000007f0000000000000000000000000000000000000000000000000000000000000000866000612be990949392919063ffffffff16565b91505b5b5b5095945050505050565b606084848080601f016020809104026020016040519081016040528093929190818152602001838380828437600081840152601f19601f82011690508083019250505050505050905060007f000000000000000000000000000000000000000000000000000000000000000073ffffffffffffffffffffffffffffffffffffffff16633f6c923a87876040518363ffffffff1660e01b815260040161242e929190614497565b600060405180830381865afa15801561244b573d6000803e3d6000fd5b505050506040513d6000823e3d601f19601f8201168201806040525081019061247491906147ef565b6060015190507f000000000000000000000000000000000000000000000000000000000000000073ffffffffffffffffffffffffffffffffffffffff168173ffffffffffffffffffffffffffffffffffffffff1614612508576040517f08c379a00000000000000000000000000000000000000000000000000000000081526004016124ff906148aa565b60405180910390fd5b60011515600260149054906101000a900460ff161515036125ed57612588827f00000000000000000000000000000000000000000000000000000000000000007f000000000000000000000000000000000000000000000000000000000000000087876125759190613fdb565b6000612c5190949392919063ffffffff16565b91506125e682600260009054906101000a900473ffffffffffffffffffffffffffffffffffffffff167f0000000000000000000000000000000000000000000000000000000000000000876000612c5190949392919063ffffffff16565b915061264a565b612647827f00000000000000000000000000000000000000000000000000000000000000007f0000000000000000000000000000000000000000000000000000000000000000866000612c5190949392919063ffffffff16565b91505b50949350505050565b8460000160009054906101000a900473ffffffffffffffffffffffffffffffffffffffff1673ffffffffffffffffffffffffffffffffffffffff166339255d5b8660010160009054906101000a900473ffffffffffffffffffffffffffffffffffffffff168760010160009054906101000a900473ffffffffffffffffffffffffffffffffffffffff1673ffffffffffffffffffffffffffffffffffffffff166350209a62878988600067ffffffffffffffff8111156127165761271561442c565b5b6040519080825280601f01601f1916602001820160405280156127485781602001600182028036833780820191505090505b5060405160240161275c94939291906148eb565b604051602081830303815290604052915060e01b6020820180517bffffffffffffffffffffffffffffffffffffffffffffffffffffffff8381831617835250505050846040518463ffffffff1660e01b81526004016127bd93929190614937565b6000604051808303816000875af11580156127dc573d6000803e3d6000fd5b505050506040513d6000823e3d601f19601f82011682018060405250810190612805919061497c565b505050505050565b8460000160009054906101000a900473ffffffffffffffffffffffffffffffffffffffff1673ffffffffffffffffffffffffffffffffffffffff166339255d5b8660010160009054906101000a900473ffffffffffffffffffffffffffffffffffffffff168760010160009054906101000a900473ffffffffffffffffffffffffffffffffffffffff1673ffffffffffffffffffffffffffffffffffffffff166362fc305e878988600067ffffffffffffffff8111156128d0576128cf61442c565b5b6040519080825280601f01601f1916602001820160405280156129025781602001600182028036833780820191505090505b5060405160240161291694939291906148eb565b604051602081830303815290604052915060e01b6020820180517bffffffffffffffffffffffffffffffffffffffffffffffffffffffff8381831617835250505050846040518463ffffffff1660e01b815260040161297793929190614937565b6000604051808303816000875af1158015612996573d6000803e3d6000fd5b505050506040513d6000823e3d601f19601f820116820180604052508101906129bf919061497c565b505050505050565b8460000160009054906101000a900473ffffffffffffffffffffffffffffffffffffffff1673ffffffffffffffffffffffffffffffffffffffff166339255d5b8660010160009054906101000a900473ffffffffffffffffffffffffffffffffffffffff168760010160009054906101000a900473ffffffffffffffffffffffffffffffffffffffff1673ffffffffffffffffffffffffffffffffffffffff1663b4b333c6868989600067ffffffffffffffff811115612a8a57612a8961442c565b5b6040519080825280601f01601f191660200182016040528015612abc5781602001600182028036833780820191505090505b50604051602401612ad094939291906149c5565b604051602081830303815290604052915060e01b6020820180517bffffffffffffffffffffffffffffffffffffffffffffffffffffffff8381831617835250505050846040518463ffffffff1660e01b8152600401612b3193929190614937565b6000604051808303816000875af1158015612b50573d6000803e3d6000fd5b505050506040513d6000823e3d601f19601f82011682018060405250810190612b79919061497c565b505050505050565b6060612bde8686868686600067ffffffffffffffff811115612ba657612ba561442c565b5b6040519080825280601f01601f191660200182016040528015612bd85781602001600182028036833780820191505090505b50612cb9565b905095945050505050565b6060612c468686868686600067ffffffffffffffff811115612c0e57612c0d61442c565b5b6040519080825280601f01601f191660200182016040528015612c405781602001600182028036833780820191505090505b50612e7e565b905095945050505050565b6060612cae8686868686600067ffffffffffffffff811115612c7657612c7561442c565b5b6040519080825280601f01601f191660200182016040528015612ca85781602001600182028036833780820191505090505b50613043565b905095945050505050565b60608660000160009054906101000a900473ffffffffffffffffffffffffffffffffffffffff1673ffffffffffffffffffffffffffffffffffffffff16634329d2938860010160009054906101000a900473ffffffffffffffffffffffffffffffffffffffff168960010160009054906101000a900473ffffffffffffffffffffffffffffffffffffffff1673ffffffffffffffffffffffffffffffffffffffff1663b4b333c6878a8a600067ffffffffffffffff811115612d7e57612d7d61442c565b5b6040519080825280601f01601f191660200182016040528015612db05781602001600182028036833780820191505090505b50604051602401612dc494939291906149c5565b604051602081830303815290604052915060e01b6020820180517bffffffffffffffffffffffffffffffffffffffffffffffffffffffff8381831617835250505050858a6040518563ffffffff1660e01b8152600401612e279493929190614a11565b6000604051808303816000875af1158015612e46573d6000803e3d6000fd5b505050506040513d6000823e3d601f19601f82011682018060405250810190612e6f9190614a6b565b50809150509695505050505050565b60608660000160009054906101000a900473ffffffffffffffffffffffffffffffffffffffff1673ffffffffffffffffffffffffffffffffffffffff16634329d2938860010160009054906101000a900473ffffffffffffffffffffffffffffffffffffffff168960010160009054906101000a900473ffffffffffffffffffffffffffffffffffffffff1673ffffffffffffffffffffffffffffffffffffffff166350209a62888a89600067ffffffffffffffff811115612f4357612f4261442c565b5b6040519080825280601f01601f191660200182016040528015612f755781602001600182028036833780820191505090505b50604051602401612f8994939291906148eb565b604051602081830303815290604052915060e01b6020820180517bffffffffffffffffffffffffffffffffffffffffffffffffffffffff8381831617835250505050858a6040518563ffffffff1660e01b8152600401612fec9493929190614a11565b6000604051808303816000875af115801561300b573d6000803e3d6000fd5b505050506040513d6000823e3d601f19601f820116820180604052508101906130349190614a6b565b50809150509695505050505050565b60608660000160009054906101000a900473ffffffffffffffffffffffffffffffffffffffff1673ffffffffffffffffffffffffffffffffffffffff16634329d2938860010160009054906101000a900473ffffffffffffffffffffffffffffffffffffffff168960010160009054906101000a900473ffffffffffffffffffffffffffffffffffffffff1673ffffffffffffffffffffffffffffffffffffffff166362fc305e888a89600067ffffffffffffffff8111156131085761310761442c565b5b6040519080825280601f01601f19166020018201604052801561313a5781602001600182028036833780820191505090505b5060405160240161314e94939291906148eb565b604051602081830303815290604052915060e01b6020820180517bffffffffffffffffffffffffffffffffffffffffffffffffffffffff8381831617835250505050858a6040518563ffffffff1660e01b81526004016131b19493929190614a11565b6000604051808303816000875af11580156131d0573d6000803e3d6000fd5b505050506040513d6000823e3d601f19601f820116820180604052508101906131f99190614a6b565b50809150509695505050505050565b6000819050919050565b61321b81613208565b82525050565b60006020820190506132366000830184613212565b92915050565b6000604051905090565b600080fd5b600080fd5b600073ffffffffffffffffffffffffffffffffffffffff82169050919050565b600061327b82613250565b9050919050565b600061328d82613270565b9050919050565b61329d81613282565b81146132a857600080fd5b50565b6000813590506132ba81613294565b92915050565b6132c981613270565b81146132d457600080fd5b50565b6000813590506132e6816132c0565b92915050565b6132f581613208565b811461330057600080fd5b50565b600081359050613312816132ec565b92915050565b600080fd5b600080fd5b600080fd5b60008083601f84011261333d5761333c613318565b5b8235905067ffffffffffffffff81111561335a5761335961331d565b5b60208301915083600182028301111561337657613375613322565b5b9250929050565b600080600080600080600080600060c08a8c03121561339f5761339e613246565b5b60006133ad8c828d016132ab565b99505060206133be8c828d016132d7565b98505060406133cf8c828d01613303565b97505060608a013567ffffffffffffffff8111156133f0576133ef61324b565b5b6133fc8c828d01613327565b965096505060808a013567ffffffffffffffff81111561341f5761341e61324b565b5b61342b8c828d01613327565b945094505060a08a013567ffffffffffffffff81111561344e5761344d61324b565b5b61345a8c828d01613327565b92509250509295985092959850929598565b600081519050919050565b600082825260208201905092915050565b60005b838110156134a657808201518184015260208101905061348b565b838111156134b5576000848401525b50505050565b6000601f19601f8301169050919050565b60006134d78261346c565b6134e18185613477565b93506134f1818560208601613488565b6134fa816134bb565b840191505092915050565b6000602082019050818103600083015261351f81846134cc565b905092915050565b600080600080600080600060a0888a03121561354657613545613246565b5b60006135548a828b016132ab565b97505060206135658a828b016132d7565b96505060406135768a828b01613303565b955050606088013567ffffffffffffffff8111156135975761359661324b565b5b6135a38a828b01613327565b9450945050608088013567ffffffffffffffff8111156135c6576135c561324b565b5b6135d28a828b01613327565b925092505092959891949750929550565b60008115159050919050565b6135f8816135e3565b82525050565b600060208201905061361360008301846135ef565b92915050565b6000819050919050565b600061363e61363961363484613250565b613619565b613250565b9050919050565b600061365082613623565b9050919050565b600061366282613645565b9050919050565b61367281613657565b82525050565b600060208201905061368d6000830184613669565b92915050565b600081600b0b9050919050565b6136a981613693565b82525050565b60006020820190506136c460008301846136a0565b92915050565b60008160000b9050919050565b6136e0816136ca565b82525050565b60006020820190506136fb60008301846136d7565b92915050565b61370a81613270565b82525050565b60006020820190506137256000830184613701565b92915050565b6000819050919050565b61373e8161372b565b82525050565b60006020820190506137596000830184613735565b92915050565b6000819050919050565b6137728161375f565b82525050565b600060208201905061378d6000830184613769565b92915050565b61379c8161372b565b81146137a757600080fd5b50565b6000813590506137b981613793565b92915050565b6000602082840312156137d5576137d4613246565b5b60006137e3848285016137aa565b91505092915050565b60006137f782613645565b9050919050565b613807816137ec565b82525050565b600061381882613645565b9050919050565b6138288161380d565b82525050565b600060408201905061384360008301856137fe565b613850602083018461381f565b9392505050565b600060208201905061386c60008301846137fe565b92915050565b600082825260208201905092915050565b7f5265646972656374416c6c3a206e6f7420616363657074656420746f6b656e00600082015250565b60006138b9601f83613872565b91506138c482613883565b602082019050919050565b600060208201905081810360008301526138e8816138ac565b9050919050565b7f5265646972656374416c6c3a206f6e6c7920434641763120737570706f72746560008201527f6400000000000000000000000000000000000000000000000000000000000000602082015250565b600061394b602183613872565b9150613956826138ef565b604082019050919050565b6000602082019050818103600083015261397a8161393e565b9050919050565b7f4f6e6c7920686f73742063616e2063616c6c2063616c6c6261636b0000000000600082015250565b60006139b7601b83613872565b91506139c282613981565b602082019050919050565b600060208201905081810360008301526139e6816139aa565b9050919050565b7f556e737570706f727465642063616c6c6261636b202d204265666f726520416760008201527f7265656d656e7420437265617465640000000000000000000000000000000000602082015250565b6000613a49602f83613872565b9150613a54826139ed565b604082019050919050565b60006020820190508181036000830152613a7881613a3c565b9050919050565b7f4e487b7100000000000000000000000000000000000000000000000000000000600052601160045260246000fd5b6000613ab98261375f565b9150613ac48361375f565b9250827f7fffffffffffffffffffffffffffffffffffffffffffffffffffffffffffffff0482116000841360008413161615613b0357613b02613a7f565b5b817f80000000000000000000000000000000000000000000000000000000000000000583126000841260008413161615613b4057613b3f613a7f565b5b827f80000000000000000000000000000000000000000000000000000000000000000582126000841360008412161615613b7d57613b7c613a7f565b5b827f7fffffffffffffffffffffffffffffffffffffffffffffffffffffffffffffff0582126000841260008412161615613bba57613bb9613a7f565b5b828202905092915050565b7f4e487b7100000000000000000000000000000000000000000000000000000000600052601260045260246000fd5b6000613bff8261375f565b9150613c0a8361375f565b925082613c1a57613c19613bc5565b5b600160000383147f800000000000000000000000000000000000000000000000000000000000000083141615613c5357613c52613a7f565b5b828205905092915050565b6000613c698261375f565b9150613c748361375f565b9250817f7fffffffffffffffffffffffffffffffffffffffffffffffffffffffffffffff03831360008312151615613caf57613cae613a7f565b5b817f8000000000000000000000000000000000000000000000000000000000000000038312600083121615613ce757613ce6613a7f565b5b828201905092915050565b7f556e737570706f727465642063616c6c6261636b202d20204265666f7265204160008201527f677265656d656e74205465726d696e6174656400000000000000000000000000602082015250565b6000613d4e603383613872565b9150613d5982613cf2565b604082019050919050565b60006020820190508181036000830152613d7d81613d41565b9050919050565b7f556e737570706f727465642063616c6c6261636b202d204265666f726520416760008201527f7265656d656e7420757064617465640000000000000000000000000000000000602082015250565b6000613de0602f83613872565b9150613deb82613d84565b604082019050919050565b60006020820190508181036000830152613e0f81613dd3565b9050919050565b6000606082019050613e2b6000830186613669565b613e386020830185613701565b613e456040830184613701565b949350505050565b600081519050613e5c81613793565b92915050565b613e6b81613693565b8114613e7657600080fd5b50565b600081519050613e8881613e62565b92915050565b60008060008060808587031215613ea857613ea7613246565b5b6000613eb687828801613e4d565b9450506020613ec787828801613e79565b9350506040613ed887828801613e4d565b9250506060613ee987828801613e4d565b91505092959194509250565b6000606082019050613f0a6000830186613701565b613f176020830185613701565b613f246040830184613735565b949350505050565b613f35816135e3565b8114613f4057600080fd5b50565b600081519050613f5281613f2c565b92915050565b600060208284031215613f6e57613f6d613246565b5b6000613f7c84828501613f43565b91505092915050565b6000604082019050613f9a6000830185613669565b613fa76020830184613701565b9392505050565b600060208284031215613fc457613fc3613246565b5b6000613fd284828501613e79565b91505092915050565b6000613fe682613693565b9150613ff183613693565b9250827fffffffffffffffffffffffffffffffffffffffff8000000000000000000000000182126000841215161561402c5761402b613a7f565b5b826b7fffffffffffffffffffffff0182136000841216156140505761404f613a7f565b5b828203905092915050565b600061406682613693565b915061407183613693565b9250826b7fffffffffffffffffffffff048211600084136000841316161561409c5761409b613a7f565b5b817fffffffffffffffffffffffffffffffffffffffff80000000000000000000000005831260008412600084131616156140d9576140d8613a7f565b5b827fffffffffffffffffffffffffffffffffffffffff800000000000000000000000058212600084136000841216161561411657614115613a7f565b5b826b7fffffffffffffffffffffff058212600084126000841216161561413f5761413e613a7f565b5b828202905092915050565b60006141558261372b565b91506141608361372b565b92508282101561417357614172613a7f565b5b828203905092915050565b60006141898261375f565b91506141948361375f565b9250827f8000000000000000000000000000000000000000000000000000000000000000018212600084121516156141cf576141ce613a7f565b5b827f7fffffffffffffffffffffffffffffffffffffffffffffffffffffffffffffff01821360008412161561420757614206613a7f565b5b828203905092915050565b600061421d8261372b565b91506142288361372b565b9250817fffffffffffffffffffffffffffffffffffffffffffffffffffffffffffffffff048311821515161561426157614260613a7f565b5b828202905092915050565b600061427782613693565b915061428283613693565b9250816b7fffffffffffffffffffffff038313600083121516156142a9576142a8613a7f565b5b817fffffffffffffffffffffffffffffffffffffffff8000000000000000000000000383126000831216156142e1576142e0613a7f565b5b828201905092915050565b7f696e7375662066756e6473000000000000000000000000000000000000000000600082015250565b6000614322600b83613872565b915061432d826142ec565b602082019050919050565b6000602082019050818103600083015261435181614315565b9050919050565b7f796f752073686f756c642063616c6c20636c6f73654f70656e4c6f616e28292060008201527f696e737465616400000000000000000000000000000000000000000000000000602082015250565b60006143b4602783613872565b91506143bf82614358565b604082019050919050565b600060208201905081810360008301526143e3816143a7565b9050919050565b6000815190506143f9816132ec565b92915050565b60006020828403121561441557614414613246565b5b6000614423848285016143ea565b91505092915050565b7f4e487b7100000000000000000000000000000000000000000000000000000000600052604160045260246000fd5b82818337600083830152505050565b60006144768385613477565b935061448383858461445b565b61448c836134bb565b840190509392505050565b600060208201905081810360008301526144b281848661446a565b90509392505050565b600080fd5b6144c9826134bb565b810181811067ffffffffffffffff821117156144e8576144e761442c565b5b80604052505050565b60006144fb61323c565b905061450782826144c0565b919050565b600080fd5b600060ff82169050919050565b61452781614511565b811461453257600080fd5b50565b6000815190506145448161451e565b92915050565b600081519050614559816132c0565b92915050565b60007fffffffff0000000000000000000000000000000000000000000000000000000082169050919050565b6145948161455f565b811461459f57600080fd5b50565b6000815190506145b18161458b565b92915050565b600080fd5b600067ffffffffffffffff8211156145d7576145d661442c565b5b6145e0826134bb565b9050602081019050919050565b60006146006145fb846145bc565b6144f1565b90508281526020810184848401111561461c5761461b6145b7565b5b614627848285613488565b509392505050565b600082601f83011261464457614643613318565b5b81516146548482602086016145ed565b91505092915050565b6146668161375f565b811461467157600080fd5b50565b6000815190506146838161465d565b92915050565b600061469482613270565b9050919050565b6146a481614689565b81146146af57600080fd5b50565b6000815190506146c18161469b565b92915050565b600061016082840312156146de576146dd6144bb565b5b6146e96101606144f1565b905060006146f984828501614535565b600083015250602061470d84828501614535565b602083015250604061472184828501613e4d565b60408301525060606147358482850161454a565b6060830152506080614749848285016145a2565b60808301525060a082015167ffffffffffffffff81111561476d5761476c61450c565b5b6147798482850161462f565b60a08301525060c061478d84828501613e4d565b60c08301525060e06147a184828501613e4d565b60e0830152506101006147b684828501614674565b610100830152506101206147cc8482850161454a565b610120830152506101406147e2848285016146b2565b6101408301525092915050565b60006020828403121561480557614804613246565b5b600082015167ffffffffffffffff8111156148235761482261324b565b5b61482f848285016146c7565b91505092915050565b7f73656e646572206f6620666c6f77206d7573742062652074686520656d706c6f60008201527f7965720000000000000000000000000000000000000000000000000000000000602082015250565b6000614894602383613872565b915061489f82614838565b604082019050919050565b600060208201905081810360008301526148c381614887565b9050919050565b60006148d582613645565b9050919050565b6148e5816148ca565b82525050565b600060808201905061490060008301876148dc565b61490d6020830186613701565b61491a60408301856136a0565b818103606083015261492c81846134cc565b905095945050505050565b600060608201905061494c600083018661381f565b818103602083015261495e81856134cc565b9050818103604083015261497281846134cc565b9050949350505050565b60006020828403121561499257614991613246565b5b600082015167ffffffffffffffff8111156149b0576149af61324b565b5b6149bc8482850161462f565b91505092915050565b60006080820190506149da60008301876148dc565b6149e76020830186613701565b6149f46040830185613701565b8181036060830152614a0681846134cc565b905095945050505050565b6000608082019050614a26600083018761381f565b8181036020830152614a3881866134cc565b90508181036040830152614a4c81856134cc565b90508181036060830152614a6081846134cc565b905095945050505050565b60008060408385031215614a8257614a81613246565b5b600083015167ffffffffffffffff811115614aa057614a9f61324b565b5b614aac8582860161462f565b925050602083015167ffffffffffffffff811115614acd57614acc61324b565b5b614ad98582860161462f565b915050925092905056fea2646970667358221220a08142d0af7b5de30a0e7666eaf22b5d4d3720503e387d323a3459084b8a6b2e64736f6c634300080e0033",
  "linkReferences": {},
  "deployedLinkReferences": {}
}